:020000040800F2
:10000000100D0020E9010008210E0008F90B00087E
:100010001D0E000899080008273C00080000000099
:10002000000000000000000000000000E9170008C8
:100030009D0800080000000069150008453600080A
:10004000030200080302000803020008030200087C
:100050000302000803020008A1080008B90800080C
:10006000030200080302000803020008030200085C
:10007000030200080302000803020008030200084C
:10008000030200080302000803020008030200083C
:10009000030200080302000803020008030200082C
:1000A000030200080D3700080302000803020008DD
:1000B000030200082D370008C937000803020008B2
:1000C00003020008030200080302000803020008FC
:1000D000030200087939000803020008A939000862
:1000E00003020008030200080302000800F002F8FF
:1000F00000F06BF80AA090E8000C82448344AAF157
:100100000107DA4501D100F060F8AFF2090EBAE854
:100110000F0013F0010F18BFFB1A43F0010318473B
:1001200098890000B88900000A444FF0000C10F8CC
:10013000013B13F0070408BF10F8014B1D1108BF65
:1001400010F8015B641E05D010F8016B641E01F805
:10015000016BF9D113F0080F1EBF10F8014BAD1C55
:100160000C1B09D16D1E58BF01F801CBFAD505E073
:1001700014F8016B01F8016B6D1EF9D59142D6D3CD
:10018000704700000023002400250026103A28BFF5
:1001900078C1FBD8520728BF30C148BF0B607047F9
:1001A000642900F0B380752900F0B080782900F050
:1001B000E980632900F01B83732900F0208300206D
:1001C00070471FB51FBD10B510BD00F037FB1146BD
:1001D000FFF7F7FF05F03AFD00F055FB03B4FFF71A
:1001E000F2FF03BC03F028FD094880470948004797
:1001F000FEE7FEE7FEE7FEE7FEE7FEE7FEE7FEE7D7
:10020000FEE7FEE704480549054A064B7047000033
:1002100049360008ED00000810070020100D0020EE
:100220001009002010090020704700000FB4044995
:1002300010B503AA029800F0E7FA10BC5DF814FBB1
:100240003C0000200FB41CB5074B06AA7B4469464E
:100250000090059800F0A9FA0020694600F0B8FA6D
:100260001CBC5DF814FB00008105000070B504465D
:1002700085690068C10601D5302600E02026C00748
:1002800007D070BDD4E9012130469047206A401C58
:1002900020626D1EF6D570BD70B504468569007884
:1002A000C00707D170BDD4E9012120209047206A02
:1002B000401C20626D1EF6D570BD70B50C4605461B
:1002C000012A05D02878800600D5EA69002302E0DB
:1002D000012305E05B1C934202D2E05C0028F9D1C7
:1002E000A869E618C01AA861286A18442862284636
:1002F000FFF7BCFF04E0D5E9012114F8010B90479A
:10030000B442F8D32846FFF7C7FF70BD2DE9F0418E
:100310000646002410687529314616A510D0AFF3A3
:100320000080002802DA404213A507E031688A07FE
:1003300001D512A502E0490704D511A5012401E069
:10034000AFF3008000210A2206F1240709E0B0FB88
:10035000F2FCB0FBF2F302FB1C003030785418467C
:10036000491C0028F3D123462A463046BDE8F04117
:1003700000F0BCB9000000002D0000002B000000C0
:100380002000000070B504460D4621461068AFF30A
:1003900000802188090502D50F4A7A4402E00E4AFE
:1003A0007A440E32002104F1240305E000F00F0628
:1003B0000009965D5E54491C0028F7D1207800237F
:1003C000000704D5702D02D009B102231132204656
:1003D000BDE8704000F08AB9568600002DE9F05F54
:1003E000894604464FF0000ADFF874B1FB44C0F8B8
:1003F00020A02046E1688847002874D0252806D030
:10040000D4E901219047206A401C2062F1E70026D0
:100410005F462046E16888472028054607DB312DE6
:1004200005D2781910F8200C08B10643F1E7B0079F
:1004300001D526F00406C4F81CA00027C4F818A0B3
:100440002A2D09D0284603F0F0FB38B304EB8708C7
:10045000303DC8F8185019E059F8041B204604EB49
:1004600087029161E1688847012F054618D1E0694C
:10047000002820DA26F020061DE0D8F8180000EB4E
:10048000800005EB40003038C8F818002046E168CD
:100490008847054603F0C9FB0028EED1012F0AD09A
:1004A0002E2D08D12046E16888477F1C0546022F83
:1004B00046F02006C4DBA069002803DA404246F07B
:1004C0000106A061F00701D026F010066C2D0BD0BC
:1004D000682D09D04C2D39D06A2D35D0742D35D0EA
:1004E0007A2D33D016E038E0E1682F462046884761
:1004F000B842054609D16C2F26D04FF48060E168E0
:10050000064320468847054604E06C2F1AD04FF476
:10051000807006430DB3A5F14100192802D820359B
:1005200046F400664A462946204626604E46FFF7B6
:1005300037FE80B101280BD0F61D26F0070000F130
:10054000080956E74020E4E78020D8E70020D6E7F6
:1005500006F104094DE7284652E7206ABDE8F09FFE
:100560002C860000032A40F2308010F0030C00F0CB
:10057000158011F8013BBCF1020F624498BF11F8DD
:1005800001CB00F8013B38BF11F8013BA2F1040296
:1005900098BF00F801CB38BF00F8013B11F003030E
:1005A00000F02580083AC0F0088051F8043B083A72
:1005B00051F804CBA0E80810F5E7121D5CBF51F814
:1005C000043B40F8043BAFF30080D20724BF11F88E
:1005D000013B11F801CB48BF11F8012B24BF00F8F3
:1005E000013B00F801CB48BF00F8012B704710B564
:1005F000203AC0F00B80B1E81850203AA0E818501B
:10060000B1E81850A0E81850BFF4F5AF5FEA027CDB
:1006100024BFB1E81850A0E8185044BF18C918C04A
:10062000BDE810405FEA827C24BF51F8043B40F8EB
:10063000043B08BF7047D20728BF31F8023B48BFD0
:1006400011F8012B28BF20F8023B48BF00F8012B0E
:1006500070474FF000020429C0F0128010F0030C24
:1006600000F01B80CCF1040CBCF1020F18BF00F8A5
:10067000012BA8BF20F8022BA1EB0C0100F00DB854
:100680005FEAC17C24BF00F8012B00F8012B48BFB2
:1006900000F8012B70474FF0000200B51346944656
:1006A0009646203922BFA0E80C50A0E80C50B1F1CA
:1006B0002001BFF4F7AF090728BFA0E80C5048BFDE
:1006C0000CC05DF804EB890028BF40F8042B08BF7C
:1006D000704748BF20F8022B11F0804F18BF00F878
:1006E000012B704770477047704770472DE9F047FE
:1006F0000D4699469246044600F124080168880692
:1007000004D5E06921F01001216000E00120A84239
:1007100001DD471B00E00027A1697A1902EB0900FF
:10072000081AA0612078C00602D42046FFF79EFD7B
:10073000002608E0D4E901211AF806009047206A53
:10074000401C761C20624E45F4DB2078C0060AD59A
:100750002046FFF78BFD06E0D4E9012130209047C9
:10076000206A401C2062381EA7F10107F4DC07E074
:10077000D4E9012118F805009047206A401C206246
:10078000281EA5F10105F3DC2046FFF785FD207842
:10079000000602D50220BDE8F0870120FBE700003B
:1007A00001694A1C02610878704700B58FB0CDE935
:1007B00001310021059105497944CDE90310114625
:1007C0006846FFF70BFE0FB000BD0000E5FFFFFF1E
:1007D0000A6802F8010B0A60704710B5436913B14B
:1007E000AFF3008001E0FFF768FD012010BD127833
:1007F00000F124010A7000224A700122EDE711681D
:100800004FF0FF32E9E70000074B70B50D467B441F
:10081000FFF7CBFF0446284600F008F810B14FF070
:10082000FF3070BD204670BDA7360000007B00F091
:100830008000704700487047B00600207546FFF7FB
:10084000F9FFAE4605006946534620F0070085468D
:1008500018B020B5FFF7D6FCBDE820404FF00006E9
:100860004FF000074FF000084FF0000B21F0070198
:10087000AC46ACE8C009ACE8C009ACE8C009ACE8DB
:10088000C0098D46704710B50446AFF3008020467E
:10089000BDE81040FFF7A2BC00BFFEE770470000B4
:1008A00010B50449096808688047012000F010F875
:1008B00010BD00004000002010B5044909684868D8
:1008C0008047022000F004F810BD00004000002026
:1008D00001490860704700001404014000212349C9
:1008E0008279002A3AD00A46126803689A430B4676
:1008F0001A600A1D126803689A430B1D1A60027978
:1009000011440A6803681A430A60184A08321268D8
:1009100003689A43154B08331A601A1D126803685E
:100920009A43124B0C331A604279102A0ED11A1FC7
:10093000126803681A430D4B08331A601A1D1268B7
:1009400003681A43094B0C331A600DE007494279DA
:1009500011440A6803681A430A6005E002791144E9
:100960000A6803689A430A60704700000004014067
:1009700030B500228B071C0F0F2303FA04F20B4B38
:100980008C1053F824309343084C8D1044F82530D4
:1009900023468C1053F824308C07240F00FA04F4FB
:1009A0002343024C8D1044F8253030BD080001402F
:1009B0002DE9F041024600250026002000230024F6
:1009C000002791F803C00CF00F0591F803C00CF05C
:1009D000100CBCF1000F03D091F802C04CEA0505E1
:1009E00091F800C0BCF1000F31D0146800202BE05A
:1009F0004FF0010C0CFA00F3B1F800C00CEA03064A
:100A00009E4220D183004FF00F0C0CFA03F7BC4339
:100A100005FA03FC4CEA040491F803C0BCF1280F6A
:100A200006D14FF0010C0CFA00FCC2F814C00AE029
:100A300091F803C0BCF1480F05D14FF0010C0CFA3E
:100A400000FCC2F810C0401C0828D1D31460B1F8D3
:100A500000C0BCF1FF0F34DD546800202EE000F12F
:100A6000080C4FF0010808FA0CF3B1F800C00CEACA
:100A700003069E4221D183004FF00F0C0CFA03F7BE
:100A8000BC4305FA03FC4CEA040491F803C0BCF132
:100A9000280F05D100F1080C08FA0CF8C2F81480F0
:100AA00091F803C0BCF1480F07D100F1080C4FF0DA
:100AB000010808FA0CF8C2F81080401C0828CED3B0
:100AC0005460BDE8F0810246002093680B400BB1F2
:100AD000012000E0002070474161704701617047CC
:100AE0000246002111E00B4850F8310090420AD82C
:100AF000084B481C53F83000904204D9184600EBCC
:100B0000C10000797047481CC1B21529EBD300BF62
:100B1000FEE700004489000810B541F61F41092096
:100B200002F0C2FD4FF4165005F04EFB242103489D
:100B3000FFF7B1FD04F0F6FE10BD0000B801002083
:100B400030B587B005460C4628480460284802F0B6
:100B50004BFF012144F2040000F028FD03208DF832
:100B60001A004FF40070ADF8180018208DF81B0023
:100B700006A92048FFF71CFF4FF48060ADF818006D
:100B800048208DF81B0006A91A48FFF711FF6CB129
:100B900025208DF8040003208DF805008DF806004F
:100BA00001208DF8070001A800F03CF90295002013
:100BB000ADF80C00ADF80E00ADF81000ADF8140063
:100BC0000C20ADF8120002A9094802F0B7FF2CB1C1
:100BD000012240F22551064802F08BFF0121044812
:100BE00002F0F6FE002007B030BD00003400002007
:100BF000003801400008014000BFFEE710B54FF487
:100C000080710948FFF76AFF4FF400710648FFF74B
:100C100065FF4FF400710448FFF75EFF4FF48071E9
:100C20000148FFF759FF10BD000C014010B54FF40B
:100C300080710748FFF752FF4FF400710448FFF737
:100C40004BFF4FF400710248FFF748FF10BD000052
:100C5000000C014010B54FF480710448FFF73EFFCF
:100C60004FF480710148FFF737FF10BD000C0140C1
:100C70002DE9F04105462C464FF480711248FFF7EC
:100C80002BFF00261CE0274607F08007802F04D1A9
:100C9000B9000D48FFF722FF04E04FF400710A4845
:100CA000FFF71AFF6006040E4FF480710648FFF745
:100CB00015FF4FF480710448FFF70EFF701CC6B299
:100CC000082EE0DBBDE8F081000C014010B50446C1
:100CD000FFF794FF7820FFF7CBFFFFF7BBFF002063
:100CE000FFF7C6FFFFF7B6FF2046FFF7C1FFFFF78C
:100CF000B1FFFFF79BFF10BD10B50446FFF77EFF65
:100D00007820FFF7B5FFFFF7A5FF4020FFF7B0FF02
:100D1000FFF7A0FF2046FFF7ABFFFFF79BFFFFF7B2
:100D200085FF10BD10B500244FF480512248FFF715
:100D3000CAFE80B9142003F011F800BF4FF48051AF
:100D40001D48FFF7C0FE0028F8D0142003F006F875
:100D50000124204610BD4FF400511748FFF7B3FEA1
:100D600080B9142002F0FAFF00BF4FF4005112487E
:100D7000FFF7A9FE0028F8D0142002F0EFFF0224AC
:100D80002046E7E74FF480410B48FFF79CFE80B90F
:100D9000142002F0E3FF00BF4FF480410648FFF744
:100DA00092FE0028F8D0142002F0D8FF0324204639
:100DB000D0E70020CEE70000000C014008B501217B
:100DC000082000F0F3FB48208DF803004FF4E040CA
:100DD000ADF8000003208DF8020069460148FFF7D6
:100DE000E7FD08BD000C014008B50121102000F00E
:100DF000DDFB10208DF803004002ADF80000032059
:100E00008DF8020069460448FFF7D2FD4FF4005107
:100E10000148FFF763FE08BD0010014000BFFEE778
:100E20007047000070B5002100230F22C47804B37E
:100E3000154C246804F4E064C4F5E064210AC1F1AF
:100E40000403CA40447804FA03F18478144021432F
:100E500009010E4C0678A155047804F01F05012401
:100E6000AC4005786D11AD0005F1E025C5F80041F5
:100E700009E0047804F01F050124AC40044D067815
:100E8000761145F8264070BD0CED00E000E400E06E
:100E900080E100E002490143024A1160704700000E
:100EA0000000FA050CED00E070B5002418E004F134
:100EB000B000002100F073FA0021084600F06FFA3C
:100EC0000021102000F06BFA002505E00121002030
:100ED00000F065FA681CC5B2802DF7DB601CC4B257
:100EE000082CE4DB70BD000008B50121082000F0EB
:100EF0005DFB0121082000F059FB4FF48070ADF834
:100F0000000010208DF8030003208DF802006946D0
:100F10004448FFF74DFD4FF40070ADF800006946FE
:100F20004048FFF745FD4FF480713E48FFF7D6FD7E
:100F30004FF400713B48FFF7D1FD642002F00EFF33
:100F40000021AE2000F02BFA0021084600F027FA1D
:100F50000021102000F023FA0021402000F01FFAA9
:100F60000021B02000F01BFA0021812000F017FAC8
:100F70000021FF2000F013FA0021A12000F00FFA59
:100F80000021A62000F00BFA0021A82000F007FAAB
:100F900000213F2000F003FA0021C82000F0FFF9F3
:100FA0000021D32000F0FBF90021084600F0F7F9FA
:100FB0000021D52000F0F3F90021802000F0EFF9A6
:100FC0000021D82000F0EBF90021052000F0E7F91E
:100FD0000021D92000F0E3F90021F12000F0DFF931
:100FE0000021DA2000F0DBF90021122000F0D7F90F
:100FF0000021DB2000F0D3F90021302000F0CFF9F0
:1010000000218D2000F0CBF90021142000F0C7F959
:101010000021AF2000F0C3F9642002F09FFEFFF72B
:1010200043FF08BD000C014070B504460D4605F1B4
:10103000B000002100F0B3F9102141EA14100021A2
:1010400000F0ADF904F00F00002100F0A8F970BD28
:1010500010B50A48007810B900F0BAF80CE007485B
:101060000078012802D100F00BF805E00348007871
:10107000022801D100F058F810BD00000000002047
:1010800000B599B010231CA20021084600F06AF9AF
:1010900000221146092000F0DFF80122002119206A
:1010A00000F0DAF815484378027815A16846FFF792
:1010B000C9F810236A460221002000F053F90F48B6
:1010C0004379827811A16846FFF7BCF810236A467D
:1010D0000421002000F046F90848C37802790EA1E7
:1010E0006846FFF7AFF810236A460621002000F09B
:1010F00039F919B000BD000041000000A001002036
:10110000543D256420483D2564000000463D25648B
:10111000204D513D25640000434F323D2564205051
:101120004D3D25640000000000B599B010231CA2BD
:101130000021084600F016F900221146092000F0AF
:101140008BF801220021192000F086F81548437819
:10115000027815A16846FFF775F810236A46022148
:10116000002000F0FFF80F484379827811A168460B
:10117000FFF768F810236A460421002000F0F2F817
:101180000848C37802790EA16846FFF75BF8102380
:101190006A460621002000F0E5F819B000BD000005
:1011A00042000000AC010020543D256420483D254C
:1011B00064000000463D2564204D513D256400003B
:1011C000434F323D256420504D3D25640000000012
:1011D00010B502220021102000F03EF80322002169
:1011E000202000F039F804220021302000F034F8EB
:1011F00005220021402000F02FF806220021502077
:1012000000F02AF807220021602000F025F81023C2
:101210000FA20221002000F0A5F8002202210920DF
:1012200000F01AF801220221192000F015F810230D
:1012300008A20421002000F095F8002204210920D2
:1012400000F00AF801220421192000F005F810BD71
:1012500041000000420000002DE9F04180460E46AA
:101260001546002731464046FFF7DEFE00240AE01F
:10127000124A02EB8511085D012100F090F8781CFC
:10128000C7B2601CC4B2102CF2DB701CC1B2404665
:10129000FFF7CAFE00240CE06900491C074A02EB74
:1012A0004111085D012100F07AF8781CC7B2601C7A
:1012B000C4B2102CF0DBBDE8F081000014870008F8
:1012C0002DE9F04707460E46904699460025002432
:1012D000A8F12000C5B27F2F02DD0027B01CC6B2E6
:1012E000B9F1100F24D131463846FFF79DFE002496
:1012F00008E004EB0511194A505C012100F04FF899
:10130000601CC4B2082CF4DB701CC1B23846FFF775
:101310008BFE002409E004EB051108310F4A505CF4
:10132000012100F03CF8601CC4B2082CF3DB12E091
:1013300031463846FFF778FE00240AE005EB450108
:10134000074A02EB4101085D012100F028F8601C0A
:10135000C4B2062CF2DBBDE8F0870000248100084F
:10136000FC7E00082DE9F04104460F4615469846DC
:1013700000260FE0AA5D434639462046FFF7A0FF4E
:1013800004F10800C4B2782C02DD0024B81CC7B2F6
:10139000701CC6B2A85D0028ECD1BDE8F08170B524
:1013A00004460D461DB1E0B2FFF7A6FC02E0E0B234
:1013B000FFF78CFC70BD00002DE9F04105460E469C
:1013C0001746984600242249C86A80474021214890
:1013D000FFF761F920480680028829461D48FFF77B
:1013E000C1F878B21D4908701D4880F8008019487E
:1013F000007801280ED100BF06E01649601C085C89
:1014000018490855601CC4B2072CF6DB16A0FEF77D
:101410000DFF15E00F48007802280ED116A0FEF748
:1014200005FF002406E00B49601C085C16490855BE
:10143000601CC4B2072CF6DB02E014A0FEF7F6FE37
:101440000348416B41F288308847BDE8F0810000D5
:10145000A87E0008DC01002002000020050000201A
:1014600006000020A0010020D6D5B6CBD2BB4F4B42
:101470000D0A0D0A00000000D6D5B6CBB6FE4F4BC4
:101480000D0A0D0A00000000AC010020BDD3CAD532
:10149000B4EDCEF30000000010B50C49C86A8047D7
:1014A00000BF0B480078042808DD4FF4D8720949C2
:1014B00009A0FEF7BBFE0BA0FEF7B8FE00BF034875
:1014C000416B41F28830884710BD0000A87E0008BB
:1014D000300000209D7E00085B257328292D25649F
:1014E0005D000000B7A2CBCDB4EDCEF30D0A000035
:1014F00010B50649C86A804705A0FEF797FE034865
:10150000416B41F28830884710BD0000A87E00087A
:10151000B5C8B4FDBDD3CAD5CAFDBEDD2E2E2E2E54
:101520002E2E0D0A0000000010B50349C86A80473E
:1015300002A0FEF77BFE10BDA87E0008B7A2CBCDAF
:10154000B3C9B9A60D0A000010B50349C86A80479F
:1015500002A0FEF76BFE10BDA87E0008B7A2CBCD9F
:10156000B3ACCAB1210D0A007047000029B1064A88
:10157000D2690243044BDA6104E0034AD269824330
:10158000014BDA61704700000010024029B1064AA1
:1015900012690243044B1A6104E0034A1269824350
:1015A000014B1A61704700000010024029B1064A41
:1015B00092690243044B9A6104E0034A92698243B0
:1015C000014B9A61704700000010024029B1064AA1
:1015D000D2680243044BDA6004E0034AD2688243D3
:1015E000014BDA60704700000010024030B5002166
:1015F0000022002400232D4D6D6805F00C0121B15F
:10160000042905D0082923D105E0294D056022E0F1
:10161000274D05601FE0254D6D6805F47012234DC0
:101620006D6805F48034022505EB92421CB9214D0A
:10163000554305600BE01D4D6D6805F400351DB187
:101640001C4D5543056002E0194D5543056002E00D
:10165000174D056000BF00BF144D6D6805F0F00127
:101660000909154D6B5C0568DD4045600F4D6D68DF
:1016700005F4E061090A104D6B5C4568DD4085604A
:101680000A4D6D6805F46051C90A0B4D6B5C4568E5
:10169000DD40C560054D6D6805F44041890B074D7F
:1016A0006B5CC568B5FBF3F5056130BD0010024009
:1016B00000127A0000093D001C0000202C000020D0
:1016C0002DE9F05F092000F097FF8246062000F028
:1016D00093FF4FEA004B072000F08EFF4BEA002BF0
:1016E000082000F089FF4BEA0009484606F000F99F
:1016F000074600221E4B06F04BF9054606F0B4F8EB
:1017000004460021092001F0ABFE3B2000F074FFED
:1017100000F0BF0040F0400529463B2001F0A0FE4C
:1017200000BF3B2000F068FF00F020002028F8D028
:10173000104801F097F83B2000F05EFF00F0BF007A
:1017400040F0400529463B2001F08AFE00BF3B20C7
:1017500000F052FF00F020002028F8D05146092068
:1017600001F07EFE204601F07DF8BDE8F09F00000C
:1017700080844E4000A1BC3321B1028842F0400277
:10178000028004E002884FF6BF731A40028070475F
:101790000246002013890B400BB1012000E000201D
:1017A00070470146888970478181704710B50022D3
:1017B000028802F441520B884C8823438C882343CF
:1017C000CC8823430C8923434C8923438C892343AE
:1017D000CC8923431A430280838B4FF2FF7423404A
:1017E00083830B8A038210BD7047704770470146A0
:1017F0000120704710B50446A0B202F0AFFA10BD48
:101800000148007870470000000400202DE9F34FE4
:101810009FB000201E9000BF00BF00BF00BF00BFF0
:1018200000BF00BF1F9810B101286AD16AE0934938
:10183000886906F05DF8CDE90A01209806F058F8AD
:10184000CDE90601302000F0D7FE20F0F90010B1FC
:1018500000208B4901E000200146CDE9040127204A
:1018600000F0CAFE20F0F800401C8449898B08442F
:10187000019006F026F8CDE902018048807F01281A
:1018800002D10020034601E000207D4B0246CDE955
:101890000003DDE9020105F0ABFD8046DDE904232C
:1018A00005F0A6FD0646DDE9062305F0A1FD044688
:1018B0000D46724890F82000012803D100204FF017
:1018C000804101E000200146064632460B46204694
:1018D000294605F08DFD824600226A4B06F058F835
:1018E000CDE90801DDE90A2305F036FE0022664B4A
:1018F000CDE90C0106F04CF8CDE90E0104F08EFBA9
:101900001E90B6E000210C460D465C48C06B0728CF
:1019100004D0082805D0092809D105E000245B4D32
:1019200005E000245A4D02E000245A4D00BF00BFDC
:10193000524991F84020012101FA02F005F0C1FF5F
:10194000064632460B462046294605F005FECDE9FF
:101950001C0100204A49DDE91C2305F0FDFDCDE90D
:101960001A014649B1F8460005F0C2FF8046002240
:10197000494B05F03DFD0646DDE91A2306F008F85F
:10198000CDE918013D4991F84510081D05F099FF72
:10199000CDE90E013949096C8A00384991F84410A3
:1019A000002901DD022100E00021501A05F0A0FF0E
:1019B000CDE90C012099CA003049096C042303FBCE
:1019C00011211C312D4A92F84A20102303FB0212E8
:1019D0002A4991F8481009B1142100E00021501A59
:1019E00005F086FF8246DDE90C2305F0B5FD0646CD
:1019F00002F024F98046DDE90E2305F0C9FFCDE9A8
:101A0000160100221346DDE9160106F0BFF802D2E6
:101A1000DDE9160101E000200146064632460B468C
:101A20000020184905F0E4FCCDE91401DDE91A2392
:101A3000DDE9140105F0ACFFCDE91201DDE9122367
:101A4000DDE9180105F0D4FCCDE9100100220E4BB0
:101A5000DDE9100105F09CFF0646104A104B05F029
:101A6000C7FC804602F0BAF9824605F0FDFE1E90E2
:101A700000BF00BF1E9821B0BDE8F08F0004002019
:101A80000000F03F0000204000408F408084FE4076
:101A900080840E4180841E41000011402B8716D99E
:101AA000CEF7EF3F70B505461648056001F0C2FC61
:101AB00000F030F800F0F6FDFFF702FE002000F025
:101AC00053FF114800F070F8002412E004EB4401C9
:101AD0000E4A505C00F008FF04EB44020B4B1A4422
:101AE000917804EB44021A44507801F0B9FC601C70
:101AF000C4B2102CEAD3002000F0F6FE0020044906
:101B0000087070BD680100206C0100201489000875
:101B10000004002000B587B001211C20FFF746FD1E
:101B200003208DF81A001020ADF818008DF81B0066
:101B300006A91B48FEF73CFF01210803FFF736FD0D
:101B400018208DF81B00E020ADF8180006A91448F5
:101B5000FEF72EFF0020ADF804004FF48270ADF8C0
:101B600006000020ADF808000220ADF80A000120B0
:101B7000ADF80C004002ADF80E002020ADF81000CA
:101B80000020ADF812000720ADF8140001A90548A7
:101B9000FFF70CFE01210348FFF7EEFD07B000BD83
:101BA00000080140003001401FB504462A48046087
:101BB00001210846FFF7FAFC01211C20FFF7F6FC83
:101BC00003208DF8020028208DF803000120ADF8D5
:101BD000000069462148FEF7EBFE00210120FEF7D8
:101BE000C7FE0120029000208DF80C0008208DF81F
:101BF0000D0001208DF80E0002A8FEF76FFE0620F2
:101C00008DF8040002208DF8050003208DF80600F1
:101C100001208DF8070001A8FFF704F90120FEF765
:101C200057FE0220ADF8000069460C48FEF7C0FEE2
:101C300001210846FEF79CFE0220029002A8FEF752
:101C40004DFE07208DF8040001A8FFF7EBF80220F5
:101C5000FEF73EFE1FBD000040000020000C0140CA
:101C60002DE9F04106460C4615460027304600F0A7
:101C70003BFE204600F0F6FD052000F075FE012039
:101C8000FFF7B8FD304600F0E5FC074601F0A6F985
:101C9000AF4202DD0020BDE8F0810120FBE700003B
:101CA0002DE9F04F93B0002011908246F94800785A
:101CB000012802D002287DD101E200F027FDF5487D
:101CC000407810B1012876D143E1F24890F8200025
:101CD000012871D13F2000F08FFC11909DF8440045
:101CE00000F0020002287DD00B213E2001F0B8FB5D
:101CF00010213F2001F0B4FB00F008FDE54890F80A
:101D0000220028B901F08EFB0020E24908704FE064
:101D10000D2000F071FC40F0400421460D2001F040
:101D20009FFBDC49886905F0E3FDCDE90801272028
:101D300000F062FC20F0F80B584605F0C2FD0022CE
:101D4000D54BCDE9000105F053FB04460D46D149C2
:101D5000888B05F0CDFD064622462B4605F048FB54
:101D60000022CE4BCDE9020105F042FB0022CC4B14
:101D7000CDE9040105F00CFECDE90601DDE90823FB
:101D800005F0EAFB0022C74BCDE90A0105F000FE91
:101D9000CDE90C0101F052FF80460022C24B05F054
:101DA00027FBCDE90E0105F05FFD109001F02CFB43
:101DB000BE4802E0A1E17FE114E0006838B1BB4811
:101DC0000068006918B1B9490968086980470020AE
:101DD000B04981F828000021AE4880F8291081869A
:101DE00041866AE1AB48408E40BBAA48808E28BB42
:101DF000A848807F28B90121A648323000F021FC94
:101E000004E0322000F0F8FBA2494886A14A92F88B
:101E1000323092F834209A1AD1B29E4A928EA44B54
:101E2000D01800F00EFC9B48418E808E091A99480C
:101E3000808E084481B29748818616E0954A92F8D0
:101E4000323092F834209A1AD1B2924A928E984B3C
:101E5000D01800F0F6FB8F48418E808E091A8D480D
:101E6000808E084481B28B4881868A4890F822008F
:101E7000002847D187490870886905F039FDCDE908
:101E80000801272000F0B8FB20F0F80B584605F0B9
:101E900018FD06460022804B05F0AAFACDE90001A4
:101EA0007C49888B05F024FD8046DDE9002305F0A0
:101EB0009FFA0022794BCDE9020105F099FA002240
:101EC000774BCDE9040105F063FDCDE90601DDE9BD
:101ED000082305F041FB04460022724B05F058FD33
:101EE000CDE90A0101F0AAFE00226F4BCDE90C01F9
:101EF00005F07EFACDE90E0105F0B6FC109001F078
:101F000083FA08E00D2000F077FB40F04004214602
:101F10000D2001F0A5FA00F0F9FB6448006868B1F3
:101F200062480068806848B15A4890F92A20418E7A
:101F30005E480068002384685D48A047002055493A
:101F400081F828000021534880F8291081864186B5
:101F5000B3E000244021122001F082FA122000F0A8
:101F60004BFB11909DF8440000F02000202818D170
:101F70002021122001F074FA464890F84E0010B962
:101F800000204449087000F0C1FB4848006838B19F
:101F900046480068006918B14449096808698047E3
:101FA0008BE0192000F028FB40B23A4981F8540038
:101FB000084690F8540000F0800040B1084690F8C0
:101FC0005400C043401CC0F38504644204E031481F
:101FD00090F85400C0F385041A2000F00DFB8246EF
:101FE000002C18DA2B4840683249884209D9AAF1F6
:101FF0009D0000EB2A10204401B22648A0F856109C
:102000001FE0AAF1A40000EB2A10204401B22148ED
:10201000A0F8561015E01F4840682649884208D9A4
:10202000AAF19D0000EB2A1001B21A48A0F8561040
:1020300007E0AAF1A40000EB2A1001B21548A0F8AD
:102040005610132000F0D8FA124981F858000846BB
:1020500090F85810164800F0F4FA0E4890F84E0028
:1020600010B900200B49087000F050FB0F480068C1
:1020700078B10E480068806858B1064890F954302D
:10208000B0F9562090F8581008480068856808484C
:10209000A84712E0000400200000F03F00002440A8
:1020A0000000204000408F400000104068010020E8
:1020B0000003002040DD4A1F00BF00BF1EE001F00A
:1020C000C7F91048407838B1012804D108211220FE
:1020D00001F0C6F900BF00BF00200A4908700A4895
:1020E000006838B108480068006818B106490968F6
:1020F0000868804700BF00BF00E000BF00BF13B00A
:10210000BDE8F08F000400206801002010B55E4893
:102110000078012802D002287ED163E05A48407836
:1021200010B101285BD145E05748408E80B9564830
:10213000808E68B95448807F28B9012152483230D6
:1021400000F07FFA04E0322000F056FA4E4948864B
:102150004D48418E808E091A4B4890F836008142D6
:1021600010DD494A92F83610928E484BD01800F094
:1021700068FA4548818E90F83600084481B242489A
:10218000818616E0404A92F8323092F834209A1A4A
:10219000D1B23D4A928E3D4BD01800F052FA3A48E7
:1021A000418E808E091A3848808E084481B23648A4
:1021B000818615E000F0AAFA8021122001F050F982
:1021C0000020314908703248006838B13048006852
:1021D000C06818B12E490968C868804700E000BF90
:1021E00000BF4EE02848407810B1012845D133E0C7
:1021F0002548418E808E091A234890F83700814285
:1022000012DD214A92F83710928E204BD01801F03F
:1022100049F91D48818E00E032E090F8370008440B
:1022200081B21948818616E0174A92F8323092F846
:1022300034209A1AD1B2144A928E144BD01801F05D
:1022400031F91148418E808E091A0F48808E08445A
:1022500081B20D48818611E001F0FAF800200A49A8
:1022600008700B48006838B109480068406818B128
:10227000074909684868804700E000BF00BF00E0E8
:1022800000BF00BF10BD00000004002000030020BC
:10229000680100202DE9FC4749480078012802D058
:1022A00002287CD160E04648407810B1012858D11E
:1022B0003CE0434890F82800012836D1404890F887
:1022C000290090BB01F0AEF801213D4880F82910AB
:1022D000112000F091F94010404241B2384880F896
:1022E0002A101C2000F088F982461B2000F084F997
:1022F0004AEA0029484605F0E4FA074605F084FA60
:10230000044605F0DEFA054600222E4B05F040FBA0
:10231000CDE9000105F078FA2949C8620C2000F0E7
:102320006BF94109264880F830101BE0244890F8EA
:102330004B00012814D10221122001F091F822480B
:10234000006868B120480068406948B11C2000F06E
:1023500053F900F03F041C48006841692046884753
:1023600000E000BF00BF27E01548407810B1012809
:102370001ED100E01DE0124890F84B00012816D154
:102380000221122001F06CF80F48006878B10E4865
:102390000068406958B11C2000F02EF900E00AE006
:1023A00000F03F040848006841692046884700E083
:1023B00000BF00BF00E000BF00BFBDE8FC87000019
:1023C0000004002080844E406801002010B51948A8
:1023D000407810B1012829D100E028E0122000F057
:1023E0000BF900F0010080B10521122001F038F84E
:1023F00011480068C8B1104800688069A8B10E484B
:1024000000688169012088470FE00421122001F053
:1024100027F80948006840B107480068806920B182
:102420000548006881690020884700E000BF00BFC0
:1024300010BD000000040020680100200948407819
:1024400010B101280AD108E0064890F8280018B910
:102450000120044981F8280001E000E000BF00BF2E
:1024600070470000000400202DE9F04F91B04B4868
:102470000078012802D002287AD17AE047484078D3
:10248000002869D1454981F828000021434880F897
:102490002910818641860B213E2000F0E1FF1021AA
:1024A0003F2000F0DDFF3D4890F8220001284ED18A
:1024B0000D2000F0A1F840F0400421460D2000F06E
:1024C000CFFF3649886905F013FACDE90A012720C4
:1024D00000F092F820F0F800019005F0F2F9804643
:1024E00000222F4B04F084FFCDE902012B49888B99
:1024F00005F0FEF90646DDE9022304F079FF00222B
:10250000284BCDE9040104F073FF0022264BCDE9EE
:10251000060105F03DFACDE90801DDE90A2305F0E1
:102520001BF804460022214B05F032FA824601F0E6
:1025300085FB00221E4BCDE90C0104F059FFCDE9CB
:102540000E0105F091F9109000F05EFF04E000200C
:102550001249087000F066FF1648006838B1154847
:102560000068C06818B113490968C868804710E05E
:102570000EE00020094908700E48006838B10D4887
:102580000068406818B10B4909684868804700E056
:1025900000BF00BF11B0BDE8F08F000000040020B4
:1025A0000000F03F000024400000204000408F4029
:1025B000000010406801002070B50025012000F0E7
:1025C00093F9FF21112000F04BFF052000F0CCF91A
:1025D00000240BE00120FFF70DF92C2000F00CF88F
:1025E00000F00100A0400543601CC4B2202CF1DBC8
:1025F00000F0F4FC284670BD38B504460122694657
:10260000204600F003F89DF8000038BD2DE9F041A8
:1026100005460E461746002000F0C2FF05F07F0079
:1026200000F0CEFF002405E0002000F0C9FF305587
:10263000601CC4B2BC42F7DB012000F0B1FFBDE872
:10264000F08170B504460D462A4621460020FFF76A
:10265000DDFF70BD70B50446002514B1012C17D103
:1026600005E01120FFF7C8FF4010454213E00B487A
:1026700040680B49884205D91B20FFF7BDFFA0F138
:102680009D0504E01B20FFF7B7FFA0F1A40502E0C1
:102690004FF0FF3500BF00BF284670BD000400208A
:1026A00040DD4A1F08B501211C20FEF77FFF0320F3
:1026B0008DF802000820ADF8000010208DF803000E
:1026C00069460A48FEF774F908210848FEF704FA3B
:1026D000012001F043FB04208DF803006946034804
:1026E000FEF766F9062001F039FB08BD000801403D
:1026F00010B5044604EB84010122C2EB410188B20B
:1027000041F61F4101F026F810BD000010B5002170
:10271000014801F07BF810BD0004004073B5044689
:1027200000254548407810B1012839D139E0002111
:10273000414881869DF804104186807F20B901219F
:1027400001A800F0AFFE04E09DF80410322000F074
:1027500087FE9DF80400002809DD9DF8040040284C
:1027600005DC9DF80410344880F8371009E09DF826
:10277000042021463148FDF7F5FE20212E4880F83F
:1027800037102D4890F83710204600F08BFE2A486D
:10279000818E90F83700084481B227488186456AC7
:1027A00045E0254890F84D0001280DD13320FFF772
:1027B00023FF00F0BE063146332000F051FE192100
:1027C0003B2000F04DFE0DE03320FFF715FF00F039
:1027D000BE00461C3146332000F042FE1D213B2046
:1027E00000F03EFE9DF80410134880F858109DF844
:1027F0000410222000F034FE00210E2000F030FEF4
:1028000000210D2000F02CFE0120FFF7F5FE20F046
:10281000F80020B900F0F0FB0120FEF7EBFF9DF877
:102820000410204600F03EFE0348056D00BF00BFC7
:10283000284600F0EFFB7CBD0004002000030020D0
:102840007047000000B506490978814207D0044965
:10285000087010B9FEF7CAFF01E0FEF7C6FF00BD21
:10286000840100202DE9F04104460F4844602046D1
:1028700005F03EF8054600220C4B04F06DFE0746BD
:1028800004F0F2FF0446C4F30741062000F0E8FD1F
:10289000C4F30721072000F0E3FDE1B2082000F0B7
:1028A000DFFDBDE8F08100000004002080844E4080
:1028B00070B504460D46204600F016F814B1012C00
:1028C0000DD107E00748807F18B92946322000F073
:1028D000C7FD04E02946232000F0C2FD00BF00BF71
:1028E00070BD00000004002070B504461D4840780B
:1028F000A04200D170BD1B484470407810B101283F
:1029000015D000BF002000F02FF80120FFF774FE63
:1029100000F07F052946012000F0A2FD00214020A3
:1029200000F09EFD3021412000F09AFD16E00020CD
:1029300000F01AF80120FFF75FFE00F07F0040F082
:1029400080052946012000F08BFD0021402000F089
:1029500087FD0021412000F083FD00BF00BF00BFC4
:10296000C8E700000004002070B504461CB901202F
:10297000FFF768FF0BE00020FFF764FF032C03D193
:102980000120FFF75DFF02E00020FFF759FF012063
:10299000FFF732FE00F0F80040EA04052946012066
:1029A00000F05EFD70BD00002DE9F04F93B00446CD
:1029B0004FF00009D148407810B1012830D130E003
:1029C000CE4890F822904020FFF716FE00F003005A
:1029D00040F00C052946402000F042FD4120FFF761
:1029E0000BFE00F03E0040F0C000451C294641208F
:1029F00000F036FD3520FFF7FFFD00F03F01BF4836
:102A000080F836101E210D2000F02AFD0020BB4961
:102A100081F828000021B94880F829108186418674
:102A2000FCE0B64890F84D00012810D13320FFF7A4
:102A3000E3FD00F0BE0040F04000451C2946332075
:102A400000F00EFD19213B2000F00AFD0DE03320BF
:102A5000FFF7D2FD00F0BE00451C2946332000F0F0
:102A6000FFFC1D213B2000F0FBFCA448C06B0928A3
:102A70007BD23120FFF7C0FD00F07F0529463120D1
:102A800000F0EEFC0021302000F0EAFC9B48C06B17
:102A9000092819D2DFE800F005192D41556A7E8317
:102AA000880048212F2000F0DBFC9449486804F09E
:102AB0001FFF07460022924B04F09AFC054604F0E3
:102AC000D3FE8246FFF7CEFE73E044212F2000F0B4
:102AD000C7FC8A49486804F00BFF07460022894B6F
:102AE00004F086FC054604F0BFFE8246FFF7BAFEFE
:102AF0005FE044212F2000F0B3FC8049486804F0D7
:102B0000F7FE07460022804B04F072FC054604F0F5
:102B1000ABFE8246FFF7A6FE4BE044212F2000F0DB
:102B20009FFC7649486804F0E3FE07460022774B95
:102B300004F05EFC054604F097FE8246FFF792FE25
:102B400037E044212F2000F08BFC6C49486804F0EA
:102B5000CFFE074600226E4B04F04AFC054604F007
:102B600083FE8246FFF77EFE23E023E044212F20F0
:102B700000F076FC6149486804F0BAFE0546002280
:102B8000644B04F035FC074604F06EFE8246FFF706
:102B900069FE0EE040212F2000F062FC09E0402198
:102BA0002F2000F05DFC04E040212F2000F058FCB5
:102BB00000BF08E03120FFF71FFD40F080052946E7
:102BC000312000F04DFC4D4890F84E9090F84B00AD
:102BD00001280DD11D21112000F042FC4020FFF7FB
:102BE0000BFD00F033052946402000F039FC0CE0D5
:102BF0001F21112000F034FC4020FFF7FDFC00F005
:102C00003F052946402000F02BFC00210F2000F05A
:102C100027FC00210D2000F023FC00BF00BF4FF473
:102C200080713D48FDF737FD01203449087014B12B
:102C30002046FFF75DFD3148407800284DD1052042
:102C4000FFF792FEB9F1000F51D12C49886904F0C9
:102C50004FFECDE908012720FFF7CEFC20F0F80059
:102C6000019004F02EFE054600222C4B04F0C0FB20
:102C7000074688462149888B04F03AFE82463A4648
:102C8000434604F0B5FB0022254BCDE9020104F0D8
:102C9000AFFB0022234BCDE9040104F079FECDE91E
:102CA0000601DDE9082304F057FC00221E4BCDE9A4
:102CB0000A0104F06DFECDE90C0100F0BFFF002217
:102CC0001A4BCDE90E0104F093FBCDE9100104F09D
:102CD000CBFD129000F098FB09E0B9F1010F03D190
:102CE0000520FFF741FE02E00620FFF73DFE12201F
:102CF000FFF782FC13B0BDE8F08F00000004002055
:102D00000082BE40005AC4400082CE408057D4406A
:102D10008084DE40C058E440000300200000F03F03
:102D2000000024400000204000408F400000104080
:102D30002DE9FF4F85B00D4614469946DDF868B081
:102D4000DDE916A8159F139E0598FFF7CDFD0598A0
:102D500010B1012860D160E09D48056184619C4903
:102D6000129848610846877780F81FA080F8208075
:102D700080F821B01B9881F82200084686832046FF
:102D800004F0B6FD02460B46CDE900010020914952
:102D900004F0E2FBCDE9020104F066FD84B2210AF1
:102DA000022000F05DFBE1B2032000F059FB284651
:102DB000FDF796FE01460390122000F051FB129899
:102DC000FDF78EFE01460390132000F049FB310A07
:102DD000252000F045FBF1B2262000F041FB012F39
:102DE00004D15146322000F03BFB03E0FF213220AA
:102DF00000F036FB3020FFF7FFFB00F06F00012FE3
:102E000001D1002100E08021084340EA081001467A
:102E10000390302000F024FBD6E0022D01D900BF42
:102E2000FEE7ED1D6A48C563046480F84590A0F88C
:102E3000466080F8487080F849A080F84A8064496C
:102E4000189881F84B00199881F84C00084680F8D2
:102E50004DB01B9881F84E000C2C01D90C2402E0D7
:102E6000062C00D20624072D03D10B2C05D00C2CE8
:102E700003D0082D06D10C2C04D10121544880F830
:102E8000441003E00021524880F844101D20FFF751
:102E9000B3FB002040EA051040EA49003843C0B2C5
:102EA000014603901D2000F0DBFA1E20FFF7A4FB73
:102EB00000F0080040EA041040EA88000322149958
:102EC00002EA21210843C0B2014603901E2000F00F
:102ED000C7FA2620FFF790FB00F0F7013C4890F876
:102EE000440041EAC000C0B201460390262000F031
:102EF000B7FA1498C1B21F2000F0B2FA310A2020AC
:102F000000F0AEFAF1B2212000F0AAFA012F03D1AD
:102F10005146222000F0A4FA2D4890F84B000128D9
:102F200011D14420FFF768FB00F07F0040F08000E3
:102F300001460390442000F093FA254890F84C1085
:102F4000242000F08DFA092D0DD121484068224936
:102F5000884208D90221362000F082FA64213A2002
:102F600000F07EFA0EE0092D08D10221362000F093
:102F700077FA7F213A2000F073FA03E0032136202C
:102F800000F06EFA062C0FD13120FFF735FB00F070
:102F9000F800401D01460390312000F061FA0C2139
:102FA000372000F05DFA0EE03120FFF725FB00F03E
:102FB000F800C01C01460390312000F051FA0A21AC
:102FC000372000F04DFA00BF00BF09B0BDE8F08F18
:102FD0000004002080847E4140DD4A1F10B5FFF7C9
:102FE00095FB00F035FA0020FFF7BEFC00200149F8
:102FF000087010BD0004002010B5FFF787FB00F03B
:1030000027FA0120FFF7B0FC00200149087010BD2D
:103010000004002070B504462A48407810B1012809
:1030200042D11CE04020FFF7E7FA00F0030040F037
:1030300010052946402000F013FA4120FFF7DCFA82
:1030400000F03E052946412000F00AFA3520FFF73E
:10305000D3FA00F03F011B4880F8361024E01948ED
:1030600090F84B0001280FD1F521112000F0F8F95C
:103070004020FFF7C1FA00F0330040F04005294638
:10308000402000F0EDF90EE0F721112000F0E8F902
:103090004020FFF7B1FA00F03F0040F0400529461C
:1030A000402000F0DDF900BF00BF02200549087094
:1030B0002046FFF71DFB0320FFF756FC1220FFF709
:1030C0009BFA70BD000400202DE9FF4F85B00C462F
:1030D00090461E46DDE915AB149F129D4FF0000986
:1030E000002004900598FFF7FFFB0920FFF784FA02
:1030F00081464D20FFF780FA04904FF0800909F0D7
:10310000800080282DD1112C05DD049800F0F800F6
:10311000C01D049004E0049800F0F800001D049025
:10312000049800F0070007280DD1052C00DA0524CB
:10313000142C00DD142409F0F000611F01F00F01D0
:1031400040EA01091CE0022C00DA0224112C00DD07
:10315000112409F0F000A11E01F00F0140EA01095D
:103160000EE0B4F1FF3F01DA4FF0FF340E2C00DD2A
:103170000E2409F0F000611C01F00F0140EA010982
:103180004946092000F06CF94D20049900F068F9D7
:10319000059810B101285DD15DE087480472C0F840
:1031A0000C8006618561878380F81EA080F820B0BE
:1031B0008149199881F821001A984862404604F024
:1031C00097FB00227D4BCDE9000104F0C5F9CDE964
:1031D000020104F049FB1FFA80F84FEA182104208D
:1031E00000F03EF908F0FF01052000F039F928460B
:1031F00004F07EFB02460B46CDE900010020704939
:1032000004F0AAF9CDE9020104F02EFB85B2290AE7
:10321000022000F025F9E9B2032000F021F9390A73
:10322000252000F01DF9F9B2262000F019F9302010
:10323000FFF7E2F900F06F00BAF1010F01D10021B0
:1032400000E08021084340EA0B1001460390302043
:1032500000F006F9ACE0584880F83840022E01D959
:1032600000BFFEE7F61D5448C66305645249139833
:1032700081F845000846A0F8467080F848A01798E5
:1032800081F84B00189881F84C00084680F84AB045
:10329000199881F84D001A9808650C2D01D90C2554
:1032A00002E0062D00D20625072E03D10B2D05D0F6
:1032B0000C2D03D0082E06D10C2D04D101213E483F
:1032C00080F8441003E000213B4880F844103A485D
:1032D00090F84B00012811D14420FFF78DF900F040
:1032E0007F0040F0800001460390442000F0B8F8D1
:1032F000314890F84C10242000F0B2F81D20FFF760
:103300007BF9002040EA0611139841EA400040EAA8
:103310000A00C0B2014603901D2000F0A1F81E2053
:10332000FFF76AF900F00B0040EA051040EA8B0055
:10333000C0B2014603901E2000F092F82620FFF74D
:103340005BF900F0F7011C4890F8440041EAC00026
:10335000C0B201460390262000F082F8390A2020EE
:1033600000F07EF8F9B2212000F07AF8062D0FD196
:103370003120FFF741F900F0F800401D01460390AD
:10338000312000F06DF80C21372000F069F80EE0D4
:103390003120FFF731F900F0F800C01C014603901E
:1033A000312000F05DF80A21372000F059F800BF05
:1033B00000BF09B0BDE8F08F0004002080844E40BB
:1033C00080847E4110B50F48407810B1012815D196
:1033D00000E014E0FA21112000F042F84020FFF74D
:1033E0000BF900F03F042146402000F039F803209B
:1033F000044908700720FFF7B7FA00E000BF00BFDC
:1034000010BD00000004002010B5044604EB840148
:103410000122C2EB410188B241F61F4100F09AF946
:1034200010BD000010B50021014800F0EFF910BDFB
:1034300000040040704710B5044604EB84010122EB
:10344000C2EB410188B241F61F4100F083F910BD83
:1034500010B50021014800F0D9F910BD000400406A
:1034600013B50446012201A9204600F001F81CBD55
:103470002DE9F04105460E461746002000F090F871
:1034800045F0800000F09CF8002404E0305D00F07E
:1034900097F8601CC4B2BC42F8DB012000F080F851
:1034A000BDE8F08170B504460D462A46214600204D
:1034B000FFF7DEFF70BD10B500F002F810BD000090
:1034C0000CB50020019000903348006840F4803033
:1034D0003149086000BF3048006800F400300090B7
:1034E0000198401C0190009818B90198B0F5A06FA0
:1034F000F1D12948006800F4003010B1012000909B
:1035000001E0002000900098012843D12348006882
:1035100040F01000214908600846006820F00300D0
:1035200008600846006840F0020008601A484068D9
:10353000194948600846406848600846406840F4B9
:10354000806048600846406820F47C104860084667
:10355000406840F4E81048600846006840F0807019
:10356000086000BF0C48006800F000700028F9D027
:103570000948406820F00300074948600846406851
:1035800040F00200486000BF0348406800F00C00B3
:103590000828F9D10CBD00000010024000200240B4
:1035A00010B5044624B110210448FDF797FA03E052
:1035B00010210248FDF790FA10BD000000080140FC
:1035C00070B50446002507E02846691C8DB2B0F5A9
:1035D000FA6F01DDFF2070BD02210F48FEF7D8F819
:1035E0000028F1D021460C48FEF7DEF8002507E060
:1035F0002846691C8DB2B0F5FA6F01DDFF20EAE7BD
:1036000001210548FEF7C4F80028F1D00248FEF772
:10361000C8F8C0B2DFE7000000300140042808D13C
:103620004FF0E021096941F004014FF0E0221161FF
:1036300007E04FF0E021096921F004014FF0E0229A
:10364000116170477047000010B51348006840F0E2
:1036500001001149086008464068104908400E49B9
:103660004860084600680E4908400B490860084653
:10367000006820F4802008600846406820F4FE00BE
:1036800048604FF41F008860FFF715FF4FF000609F
:103690000449086010BD0000001002400000FFF85F
:1036A000FFFFF6FE08ED00E07FB505460C46012160
:1036B000C802FDF77BFFADF80850ADF804400020CC
:1036C000ADF80A00ADF806008DF80C0001A90E480F
:1036D00000F0D2F8012211460B4800F0C0F8192082
:1036E0008DF8000000208DF8010003208DF8020005
:1036F00001208DF803006846FDF794FB0121024884
:1037000000F084F87FBD0000002C014010B50121BD
:10371000054800F093F808B101F0C2FE012102480B
:1037200000F071F810BD0000002C014010B501211F
:10373000074800F083F848B10121054800F063F81C
:103740000021034800F062F8FEF78EFE10BD000075
:10375000000400407FB505460C4601210220FDF71C
:1037600005FF1848008840F0040016490880ADF8AD
:103770000850ADF804400020ADF80A00ADF806008E
:1037800001A9104800F078F8012211460D4800F018
:1037900066F81D208DF8000000208DF80100032040
:1037A0008DF8020001208DF803006846FDF73AFB12
:1037B0000121044800F027F80121024800F026F812
:1037C0007FBD00000004004010B501210A4800F050
:1037D00035F801280AD109490869804700210648BF
:1037E00000F048F86421044800F042F80121024842
:1037F00000F009F810BD000000080040740000202F
:10380000CA4302827047CA430282704721B10288CC
:1038100042F00102028004E002884FF6FE731A4073
:10382000028070470146888C704702460020138A48
:103830000B400BB1012000E00020704730B502467C
:10384000002000230024158A05EA0103958905EA72
:10385000010413B10CB1012000E0002030BD1AB109
:1038600083890B43838102E083898B438381704783
:103870008185704781847047002202881D4B9842E1
:103880000ED01D4B98420BD0B0F1804F08D01B4B8F
:10389000984205D01A4B984202D01A4B984204D154
:1038A0004FF68F731A404B881A43174B984207D034
:1038B000164B984204D04FF6FF431A40CB881A4368
:1038C00002808B8883850B8803850A4B98420BD036
:1038D000094B984208D00E4B984205D00D4B9842A8
:1038E00002D00D4B984201D10B7A038601238382CB
:1038F00070470000002C01400034014000040040EB
:1039000000080040000C004000100040001400407F
:103910000040014000440140004801407FB5054699
:103920000C4601210420FDF721FEADF80850ADF84A
:1039300004400020ADF80A00ADF8060001A90D48CA
:10394000FFF79AFF012241210A48FFF788FF1E2056
:103950008DF8000003208DF801008DF80200012091
:103960008DF803006846FDF75DFA01210148FFF775
:103970004DFF7FBD0008004010B52021084800F031
:1039800081F801280AD10748006838B1044800F0DE
:1039900041F9C4B2204603490968884710BD0000B8
:1039A000003801403400002008B540F22551074896
:1039B00000F075F840B1054800F02CF9C0B2009055
:1039C0000121684601F088FC08BD00000048004065
:1039D00021B1828942F40052828104E082894DF64D
:1039E000FF731A408281704710B504462048844214
:1039F00009D101218803FDF7E9FD00214FF4804042
:103A0000FDF7E4FD32E01B48844209D1012148045E
:103A1000FDF7BCFD00214FF40030FDF7B7FD25E0B8
:103A20001548844209D101218804FDF7AFFD00212A
:103A30004FF48020FDF7AAFD18E01048844209D118
:103A40000121C804FDF7A2FD00214FF40020FDF77D
:103A50009DFD0BE00A48844208D101210805FDF7CD
:103A600095FD00214FF48010FDF790FD10BD000082
:103A7000003801400044004000480040004C004035
:103A80000050004002460020B1F5007F00D100BF89
:103A900013880B400BB1012000E00020704770B587
:103AA0000246002400230025002040F66A16B14299
:103AB00000D100BFC1F3421501F01F03012606FA31
:103AC00003F3012D02D19689334006E0022D02D185
:103AD000168A334001E0968A33400C12012606FA1A
:103AE00004F41688344013B10CB1012000E000202A
:103AF00070BDF0B50346002400260025002040F6E6
:103B00006A17B94200D100BF1846C1F3421401F050
:103B10001F06012707FA06F5012C01D10C3004E03D
:103B2000022C01D1103000E014301AB107682F4385
:103B3000076002E00768AF430760F0BD2DE9F0477A
:103B400086B005460E460024A24600BFA1460027C7
:103B5000B08900B100BF2F462C8A4CF6FF7004409C
:103B6000F08804432C82AC894EF6F3100440B088F0
:103B700031890843718908430443AC81AC8A4FF60C
:103B8000FF400440B0890443AC8201A8FDF72EFD3C
:103B90001F48874202D1DDF810A001E0DDF80CA03B
:103BA000A88900F4004040B10AEBCA0000EB0A10FB
:103BB00031684900B0FBF1F807E00AEBCA0000EBFE
:103BC0000A1031688900B0FBF1F86420B8FBF0F00E
:103BD00004012009642101FB1089A88900F4004038
:103BE00040B1322000EBC900B0FBF1F000F007005B
:103BF000044308E0322000EB09106421B0FBF1F02F
:103C000000F00F0004432C8106B0BDE8F0870000EF
:103C10000038014001468888C0F308007047C1F3AE
:103C200008028280704700BFFEE730380A2801D2C0
:103C3000012070470020704700BF70472DE9F04118
:103C4000C1F30A52A2F2FF362F4A304B0D4604460A
:103C5000142E2FDA002E12DA03F0CAFB00221346CC
:103C600003F094FF4CD2002DBCBF4FF00045002460
:103C700046DB55EA040018BF254D19D140E0DFF8B6
:103C800094C02CFA06F705EA070C5CEA040C08BF9E
:103C9000BDE8F08103F0ACFB0022134603F076FF91
:103CA0002ED2002D03DD4FF48010F0400544BD43BB
:103CB000002425E0332EC8BFBDE8F081A6F1140C26
:103CC0004FF0FF3727FA0CF73C4208BFBDE8F08100
:103CD00003F0ECFF0022134603F058FF10D2002D32
:103CE0000DDD142E08BF6D1C09D0C6F13400012172
:103CF00001FA00F02044A04238BF6D1C0446BC43CA
:103D000029462046BDE8F0819C7500883CE4377E5A
:103D10000000F03FFFFF0F0010B56FF00400FFF749
:103D20007DFC0A4800680A49B0FBF1F009490870B7
:103D30000846007800EB4001C1EBC0104FF6FF7160
:103D400001EAC0000449088010BD000008000020FE
:103D500000127A0044000020460000200146114A6B
:103D600012884A434FF0E0235A6100229A611A46B2
:103D7000126942F001021A6100BF4FF0E02210699F
:103D800000F001021AB100F48032002AF5D04FF0A1
:103D9000E022126922F001024FF0E0231A610022B2
:103DA0009A6170474600002001B581B00020009064
:103DB000694601AA5078087010784870BDF8000074
:103DC0000CBD0146080601F47F4240EA022001F4DE
:103DD0007F0240EA122040EA116070472DE9F0416D
:103DE000C1F30A52A2F2FF362F4A304B0D46044669
:103DF000142E2FDA002E12DA03F0FAFA00221346FC
:103E000003F0C4FE4CD2002DA4BF0024254647DA9F
:103E100025F00040204318BF254D41D018E0DFF8C1
:103E200094C02CFA06F705EA070C5CEA040C08BFFC
:103E3000BDE8F08103F0DCFA0022134603F0A6FE91
:103E40002ED2002D03DA4FF48010F0400544BD431C
:103E5000002425E0332EC8BFBDE8F081A6F1140C84
:103E60004FF0FF3727FA0CF73C4208BFBDE8F0815E
:103E700003F01CFF0022134603F088FE10D2002D31
:103E80000DDA142E08BF6D1C09D0C6F134000121D3
:103E900001FA00F02044A04238BF6D1C0446BC4328
:103EA00029462046BDE8F0819C7500883CE4377EB9
:103EB0000000F0BFFFFF0F0070B504460D4600BFC5
:103EC00080210548FFF7DEFD0028F9D0E1B2024865
:103ED000FFF7A5FE204670BD00380140024612B132
:103EE00002F0070028B9082901D8002070470120F6
:103EF000FCE702F00700C0F10800884201D300206F
:103F0000F4E70120F2E730B502460B460021002419
:103F100000250AB9481E30BD002108E0545C581A3B
:103F2000401E155C5554581A401E1454491CB1EBE0
:103F3000530FF3D30020EEE72DE9F04104460D4680
:103F40000027002604B135B954A0FCF76FF94FF0F3
:103F5000FF30BDE8F08100F027FA06462878217886
:103F6000884203D057A0FCF761F90127687861788F
:103F7000884203D058A0FCF759F90127A878A17806
:103F8000884203D059A0FCF751F90127E878E1787D
:103F9000884203D05AA0FCF749F901276868616894
:103FA00088420AD05B480068301A41F2707188423A
:103FB00003D359A0FCF73AF90127A868A168884201
:103FC0000AD054480068301A41F27071884203D315
:103FD00057A0FCF72BF90127E868E16888420AD06E
:103FE0004C480068301A41F27071884203D357A0E0
:103FF000FCF71CF901272869216988420AD0454845
:104000000068301A41F27071884203D355A0FCF762
:104010000DF901276869616988420AD03D48006846
:10402000301A41F27071884203D355A0FCF7FEF8B4
:104030000127A869A16988420AD036480068301A69
:1040400041F27071884203D352A0FCF7EFF80127C8
:10405000E869E16988420AD02E480068301A41F2C6
:104060007071884203D350A0FCF7E0F80127286A5A
:10407000216A88420AD027480068301A41F27071DC
:10408000884203D34DA0FCF7D1F80127012F03D1BB
:1040900000F08AF91F49086038465AE767697A4391
:1040A0006865636B5265706F7274204572726F72CF
:1040B000202C20496C6C6567616C20506172616DC9
:1040C0000A00000076616C7565415F4620436861B7
:1040D0006E6765640A00000076616C7565415F4D2E
:1040E00051204368616E6765640A000076616C75F3
:1040F00065425F46204368616E6765640A000000A0
:1041000076616C7565425F4D51204368616E6765ED
:10411000640A00009001002076616C7565415F744F
:10412000656D70204368616E6765640A0000000079
:1041300076616C7565415F48756D69646974792055
:104140004368616E6765640A0000000076616C7503
:1041500065425F74656D70204368616E6765640ACF
:104160000000000076616C7565425F48756D69649A
:10417000697479204368616E6765640A0000000015
:1041800076616C7565415F434F32204368616E67AD
:1041900065640A0076616C7565415F504D20436827
:1041A000616E6765640A000076616C7565425F4305
:1041B0004F32204368616E6765640A0076616C75F2
:1041C00065425F504D204368616E6765640A000078
:1041D000F8B504460D4604B12DB938A0FCF726F811
:1041E0004FF0FF30F8BD0020287020782B460122C8
:1041F00000210090084601F013F960782B46012257
:1042000011460090002001F00BF9A0782B46012206
:1042100002210090002001F003F9E0782B460122F2
:1042200003210090002001F0FBF801212846FFF750
:104230006AFE62680021012001F03AF905F8010FD9
:10424000A2680021012001F033F96870E2680021C2
:10425000012001F02DF9A87022690021012001F050
:1042600027F9E87062690021012001F021F986B286
:104270003046FFF799FDA880A2690021012001F0D6
:1042800017F986B23046FFF78FFDE880E26900211A
:10429000012001F00DF986B23046FFF785FD288137
:1042A000226A0021012001F003F986B23046FFF7AF
:1042B0007BFD68816D1E002094E7000067697A44E9
:1042C000617461506F696E7473325265706F72748D
:1042D00044617461204572726F72202C20496C6CAD
:1042E0006567616C20506172616D0A0070B50546AA
:1042F00000F05AF804461D492846FFF71DFE012824
:1043000013D11BA0FBF792FF184931392846FFF75C
:104310005FFF28B90D2215493139042001F016F844
:10432000242229461148FCF71DF91748B4FBF0F187
:1043300000FB1140C8B915480068A04215D014A070
:10434000FBF774FF094931392846FFF741FF28B9C7
:104350000D2206493139042000F0F8FF24222946B5
:104360000248FCF7FFF80948046070BDA80500206A
:104370006368616E6765642C207265706F7274206B
:10438000646174610A000000C027090094010020E4
:10439000496E666F3A2036303053207265706F7206
:1043A0007420646174610A0001480068704700006D
:1043B0008801002010B5174890F88D00012827D1FA
:1043C000144890F88C0002281DDAFFF7EDFF114920
:1043D000D1F8CF10401AC8281AD9FFF7E5FF0446D4
:1043E0000C4890F88C30D0F8CF2021460AA0FBF77B
:1043F0001DFF00F0C9FE074890F88C00401C0549DD
:1044000081F88C0004E0472102488C30FCF743F926
:1044100010BD00005C0400205761726E696E673A3F
:1044200067697A50726F746F636F6C526573656EF3
:1044300064446174612025642025642025640A0099
:104440003EB50446002524B913A0FBF7EFFE681E15
:104450003EBD20680090606801909DF80400401CFB
:10446000C0B28DF804000520FFF79EFCADF80200F5
:104470000921684600F0C6FE8DF80800092168464B
:1044800001F076FE0546002D03DA29460DA0FBF764
:10449000CDFE2846DCE700004552523A2067697A93
:1044A00050726F746F636F6C436F6D6D6F6E4163AD
:1044B0006B206461746120697320656D707479206C
:1044C0000A0000004552523A2075617274207772DA
:1044D000697465206572726F72202564200A00007D
:1044E000FEB504460E46002524B914A0FBF79EFE37
:1044F000681EFEBD684600F001FA12208DF8040027
:1045000060798DF805000620FFF74EFCADF802003B
:104510008DF808600A21684600F074FE8DF80900E5
:104520000A21684601F024FE0546002D03DA2946DB
:104530000DA0FBF77BFE2846DBE7000067697A5099
:10454000726F746F636F6C4572726F72436D64202B
:104550004572726F72202C20496C6C6567616C200B
:10456000506172616D0A00004552523A20756172C5
:1045700074207772697465206572726F7220256489
:10458000200A000030B59DB0044600252CB92BA0B0
:10459000FBF74CFE681E1DB030BD684600F0AEF95A
:1045A00002208DF8040060798DF805002FA103C961
:1045B000CDE9020130A103C9CDE9040131A103C94C
:1045C000CDE9080132A103C9CDE90601202233A1BA
:1045D0000AA8FCF70CF8202239A10DF15200FBF7D4
:1045E000C1FF0020CDF84A00CDF84E009DF85100E3
:1045F0008DF851009DF8510040F002018DF85110E6
:104600000020FFF7D1FBADF848006F20FFF7CCFB8F
:10461000ADF802007321684600F0F4FD8DF87200D9
:104620007321684601F0A4FD0546002D03DA2946F2
:104630002CA0FBF7FBFD2846ADE7000067697A5028
:10464000726F746F636F6C476574446576696365F8
:10465000496E666F204572726F72202C20496C6C17
:104660006567616C20506172616D0A0030303030D6
:1046700030303034000000003030303030303032F4
:1046800000000000303330333030303000000000A4
:10469000303330313031303000000000376636348E
:1046A00030343135366466653436623039636432AD
:1046B00033373962396139303866376400000000B9
:1046C0003235636630356238376463363435626458
:1046D0003938356332353761643438383230303008
:1046E000000000004552523A2075617274207772C2
:1046F000697465206572726F72202564200A00005B
:104700002DE9FE4F80460E4617464FF0000B002065
:10471000029081468246002534460090B8F1000F91
:1047200001D006B137B955A0FBF780FD4FF0FF303F
:10473000BDE8FE8F404601F095FB1FFA80FABAF102
:10474000000F02D14FF0FF30F2E74FF0000969E0AF
:10475000012201A9404601F0C2FB8346BBF1000FD4
:104760005ED052480078FF281FD19DF80400FF2832
:104770001BD14F48007848B9FF202070607002209C
:104780004C49088001204A49087040E049480088A7
:1047900004283CDD47480088A84238D0FF2020701C
:1047A000607002204349088031E040480078FF28CB
:1047B00003D19DF80400552829D03D4800780128F0
:1047C00025D19DF804003B49098860543948008888
:1047D000401C3849088008460088042817DD0094EA
:1047E000009C6088FFF7E0FA001D85B23F2D01D2E2
:1047F000042D07DC00202E4908702E4908802EA0C9
:10480000FBF714FD2B480088A84200D10CE09DF86E
:1048100004002649087038480078401C3649087062
:1048200009F10109D14593DB00BF22480088042823
:1048300022DD20480088A8421ED11E48018820465B
:1048400000F0E0FC02901B480088401E215C0298AA
:1048500081420AD13D800020154908701549088021
:10486000254908701149087062E700201049087056
:1048700010490880801E5BE7012059E767697A507C
:10488000726F746F636F6C4765744F6E65506163D0
:104890006B6574204572726F72202C20496C6C65B8
:1048A00067616C20506172616D0A00009C010020FC
:1048B000980100209A0100204552523A7468652000
:1048C00064617461206C656E67746820697320741C
:1048D0006F6F206C6F6E67206F7220746F6F207324
:1048E0006D616C6C2C2077696C6C206162616E6408
:1048F0006F6E200A000000009D01002010B50446E4
:104900002CB907A0FBF792FC4FF0FF3010BD002040
:1049100020606060FF20207060700020F6E70000DB
:104920004552523A2067697A50726F746F636F6CA8
:1049300048656164496E69742068656164206973C3
:1049400020656D707479200A000000002DE9F04F99
:10495000A1B006468B461746994600202090824615
:10496000804600256C46BBF1000F06D130A0FBF756
:104970005DFC681E21B0BDE8F08FB9F1010F06D1D2
:1049800096F8088008F10600384485B201E0781DE9
:1049900085B22B46424639462BA0FBF747FCFF2049
:1049A00004F8010B04F8010B281204F8010B04F8B9
:1049B000015B3079401C04F8010B707904F8010B9D
:1049C000002004F8010B04F8019B4FF0080AB9F12C
:1049D000010F0CD104F8018B0AF1010A0DEB0A005A
:1049E000424606F10901FBF7BDFDC24444442FB124
:1049F0000DEB0A003A465946FBF7B4FD291D6846FF
:104A000000F000FC0146E81C0DF80010291D684666
:104A100001F0AEFB20902098002806DA14A020991F
:104A2000FBF704FC6FF00100A4E70020A2E7000000
:104A30005B4552525D202064617461204973204EB1
:104A4000756C6C200A0000006C656E203D202564AA
:104A5000202C20734469644C656E203D2025642021
:104A60002C646174615F6C656E203D2025640A00D2
:104A700075617274207772697465206572726F72E5
:104A8000202564200A0000002DE9F04780460C46EE
:104A900017461D46089E94F800900CB105B136B932
:104AA0002AA0FBF7C3FB4FF0FF30BDE8F087B8F159
:104AB000000F49D112213148FBF7CBFDB9F1010FAD
:104AC00006D0B9F1020F07D0B9F1050F3AD119E0BC
:104AD00000250020306036E02849483101F13100DE
:104AE000FFF776FB50B90D2224494831681CFBF7CB
:104AF00039FD032028700E20306002E04FF0FF30B7
:104B0000D3E720E07A1E611C1C489338FBF72AFD8E
:104B1000781E1A49D339C1F8800010211748D338BC
:104B200090F8D320D4308154D43890F8D300401C6E
:104B30001249D33981F8D3000320087000250020E2
:104B4000306000E000BF00BF0020AEE767697A5028
:104B5000726F746F636F6C49737375656450726FB5
:104B600063657373204572726F72202C20496C6CE0
:104B70006567616C20506172616D0A002F0500202D
:104B800070B5044625462CB90EA0FBF74FFB4FF03D
:104B9000FF3070BD412205F108010E48FBF7E2FC31
:104BA0000F210D4890F8092100F5857081540A48BD
:104BB00090F80901401C084981F809010520087096
:104BC0000020E6E74E545020697320656D707479BB
:104BD000200A0000DC0500205C04002010B504461B
:104BE0002CB9CAA0FBF722FB4FF0FF3010BD208983
:104BF000FFF7DAF82081D1480078C0F38000217AED
:104C0000C1F38001884256D0207AC0F3800000288A
:104C100029D0207A00F0010078B10021C84890F82E
:104C2000E520E6308154E63890F8E500401CC449A0
:104C300081F8E500C3A0FBF7F9FA207AC0F3400041
:104C4000002838D00121BE4890F8E520E630815494
:104C5000E63890F8E500401CB94981F8E500C1A0AC
:104C6000FBF7E4FA27E0207A00F0010078B1002198
:104C7000B34890F8E520E6308154E63890F8E50036
:104C8000401CAF4981F8E500AEA0FBF7CFFA207ACF
:104C9000C0F3400078B10221A94890F8E520E63041
:104CA0008154E63890F8E500401CA54981F8E500FC
:104CB000B3A0FBF7BBFAA1480078C0F3C000217A8B
:104CC000C1F3C00188422CD0207AC1089B480078EB
:104CD00061F3C30099490870207AC0F3C00080B125
:104CE0000321974890F8E520E6308154E63890F8A3
:104CF000E500401C924981F8E500A8A0FBF796FA70
:104D00000FE004218E4890F8E520E6308154E63823
:104D100090F8E500401C8A4981F8E500A7A0FBF760
:104D200085FA86480078C0F30010217AC1F300119B
:104D300088422CD0207A01098048007861F3041061
:104D40007E490870207AC0F3001080B105217C48AC
:104D500090F8E520E6308154E63890F8E500401CF4
:104D6000774981F8E5009DA0FBF760FA0FE0062186
:104D7000734890F8E520E6308154E63890F8E50075
:104D8000401C6F4981F8E5009CA0FBF74FFA6B4887
:104D90000078C0F34010217AC1F3401188422CD032
:104DA000207A41096548007861F34510634908702D
:104DB000207AC0F3401080B10721614890F8E520C7
:104DC000E6308154E63890F8E500401C5C4981F8F3
:104DD000E50093A0FBF72AFA0FE00821584890F865
:104DE000E520E6308154E63890F8E500401C54494F
:104DF00081F8E50091A0FBF719FA50484078C0F31C
:104E0000C001607AC0F3C00081422CD0607AC10832
:104E10004A48407861F3C30048494870607AC0F35B
:104E2000C00080B10B21464890F8E520E63081545F
:104E3000E63890F8E500401C414981F8E50087A07C
:104E4000FBF7F4F90FE00C213D4890F8E520E6303F
:104E50008154E63890F8E500401C394981F8E500B6
:104E600085A0FBF7E3F935484078C0F30011607A7C
:104E7000C0F3001081422CD0607A01092F4840789D
:104E800061F304102D494870607AC0F3001080B1BE
:104E900009212B4890F8E520E6308154E63890F857
:104EA000E500401C264981F8E5007BA0FBF7BEF930
:104EB0000FE00A21224890F8E520E6308154E638D8
:104EC00090F8E500401C1E4981F8E50079A0FBF749
:104ED000ADF90D211A4890F8E520E6308154E63806
:104EE00090F8E500401C164981F8E500607A00F072
:104EF000070081F87001084690F8701174A0FBF764
:104F000095F902200E49087000206FE667697A5013
:104F1000726F746F636F6C4D6F64756C6553746101
:104F2000747573204572726F72202C20496C6C6509
:104F300067616C20506172616D0A00009E01002063
:104F40005C0400204F6E426F617264696E673A20A4
:104F5000536F66744150206F7220576562206D6FE9
:104F600064650A004F6E426F617264696E673A2031
:104F70004169724C696E6B206D6F64650A000000B8
:104F80004F6E426F617264696E673A205374617448
:104F9000696F6E206D6F64650A000000576946698D
:104FA000207374617475733A20696E2062696E644F
:104FB000696E67206D6F64650A0000005769466975
:104FC000207374617475733A206F75742062696E12
:104FD00064696E67206D6F64650A000057694669F1
:104FE000207374617475733A20636F6E6E656374B9
:104FF000656420726F757465720A000057694669AE
:10500000207374617475733A20646973636F6E6E94
:10501000656374656420726F757465720A000000C0
:1050200057694669207374617475733A20636F6EB3
:105030006E6563746564206D326D0A005769466958
:10504000207374617475733A20646973636F6E6E54
:105050006563746564206D326D0A000057694669A6
:10506000207374617475733A2061707020636F6E81
:105070006E6563740A0000005769466920737461A5
:105080007475733A206E6F2061707020636F6E6E5E
:105090006563740A000000005769466920737461F3
:1050A0007475733A20696E2074657374206D6F6433
:1050B000650A000057694669207374617475733A14
:1050C000206F75742074657374206D6F64650A00B9
:1050D00052535349206973202564200A00000000C0
:1050E00070B5044625462CB919A0FBF79FF84FF080
:1050F000FF3070BD1B48A9680160A9898180A97B28
:105100008171A0F5BA70D5F80F10C0F87C11014676
:10511000B1F87401FEF748FE1349A1F87401D1F803
:105120007C01FEF74EFE1049C1F87C010E210E48AD
:1051300090F8F720F8308154F83890F8F700401CC8
:10514000094981F8F700042008700020D1E7000029
:105150004552523A204E545020697320656D707448
:1051600079200A00D00500205C04002010B5FFF76C
:105170001BF9044600BFFFF717F9001BB0F5167FB7
:10518000F9D900F057FE10BD10B500240E4890F874
:105190008D0000B910BD0DA0FBF748F80A48B0F823
:1051A000CD108E3000F0E4FF04460748B0F8CD0083
:1051B000A04202D00DA0FBF739F8FFF7F5F802493D
:1051C000C1F8CF0000BFE5E75C0400205761726EB4
:1051D000696E673A2074696D656F75742C2072650D
:1051E00073656E642064617461200A004552523A0E
:1051F00020726573656E64206461746120657272EB
:105200006F720A0010B502460024002302B109B9EA
:10521000002010BD022303E0D05C2044C4B25B1C1C
:10522000481E9842F8D82046F3E7000070B50446BF
:105230000D462CB90FA0FAF7F9FF4FF0FF3070BD03
:1052400047211248FBF727FA2A4621460F48801CBF
:10525000FBF788F90D488C38A0F8CD50012180F873
:105260008D10FFF7A1F809498C39C1F8CF00002053
:10527000E5E700004552523A206461746120697389
:1052800020656D707479200A00000000E804002099
:1052900070B50446094D2CB909A0FAF7C7FF4FF0C5
:1052A000FF3070BD2879401C2179884204D1472104
:1052B0000248801EFBF7EFF90020F2E7EA04002025
:1052C0004552523A206461746120697320656D70A3
:1052D0007479200A0000000070B504460D460026CF
:1052E00024B90AA0FAF7A2FF701E70BD2A46214613
:1052F0000E4800F045FE0646AE4205D00CA0FAF777
:1053000095FF4FF0FF30F0E73046EEE74552523A56
:105310002067697A507574446174612062756620F3
:10532000697320656D707479200A000020060020E2
:105330004552523A204661696C656420746F207250
:10534000625772697465200A00000000F0B587B0EA
:1053500005460E46174600242EB91FA0FAF766FF31
:10536000601E07B0F0BD01A8FFF7C8FA05208DF850
:105370000800234890F88410D0F88400401C204A8C
:10538000C2F88400C8B28DF809008DF80C501320C3
:10539000FEF70AFDADF806003A4631460DF10D0064
:1053A000FBF7E0F8172101A8FFF72CFF8DF81A0092
:1053B000172101A800F0DCFE0446002C06DA214685
:1053C00010A0FAF733FF6FF00100CAE7172101A818
:1053D000FFF72CFF2046C4E767697A5265706F7249
:1053E0007444617461204572726F72202C20496C84
:1053F0006C6567616C20506172616D0A000000008D
:105400005C0400204552523A207561727420777214
:10541000697465206572726F72202564200A00002D
:105420002DE9F04704460D461746089E4FF0000947
:10543000CA46C8461BB94FF0FF30BDE8F087394671
:105440002846FEF74BFD8046B8F1000F07D1185DE6
:1054500005F0070106FA01F1084318551EE0B8F1FE
:10546000010F1BD1F0B205F00701C1F1080140FAAC
:1054700001F905F00700C0F10801FF20084100EA2A
:10548000060A601C185C40EA0900611C5854185D4B
:1054900005F007010AFA01F1084318550020CCE78E
:1054A00002480068401C01490860704788010020DC
:1054B00010B503460020541AB4FBF3F010BD0000F1
:1054C0002DE9FF5F06460D4693460027A846A946EC
:1054D0002C46AA4606B125B94FF0FF3004B0BDE80E
:1054E000F09F002744E0701CC05D11283CD2DFE82B
:1054F00000F0090A0B3B3B0C0D0E123B3B3B3B16ED
:10550000202F1C0031E030E02FE02EE02DE00120C4
:105510001A49087029E000201849087025E099F818
:10552000001017A0FAF782FE1FE018A0FAF77EFE1F
:105530001BE0A17962792379A068CDE90032CDE939
:105540000210E378A278218815A0FAF76FFE0CE02C
:105550001EA0FAF76BFE22A0FAF768FE9AF8001078
:1055600023A0FAF763FE00E000BF00BF781CC7B2BB
:105570003078B842B7DC0020B0E700008C01002092
:10558000525353492025640A000000005452414EF2
:1055900053504152454E545F44415441200A00004B
:1055A000574946495F4E5450203A205B25642D25CB
:1055B000642D256420253032643A253032643A2542
:1055C0003032645D5B25645D200A00004D4F445518
:1055D0004C4520494E464F202E2E2E0A000000003A
:1055E000574946204D4F44554C45202E2E2E0A003B
:1055F0006D6F64756C6554797065203A205B256425
:105600005D200A002DE9F041A4B0054600260020E7
:105610000390029000248046002735B982A0FAF753
:1056200005FE601E24B0BDE8F081FEF7C3FE03AAAC
:1056300087498848FFF764F80646002E71D186A096
:10564000FAF7F4FD824C20790F284FD00ADC0E289F
:1056500073D2DFE800F07216721A727243387272F7
:105660004472453C182852D006DC112847D0142833
:1056700046D0162861D134E0222854D02A285CD1A3
:1056800030E02046FEF77EFF5FE0E279A17977A067
:10569000FAF7CCFD02A8009007F10900BDF80C3024
:1056A0001A1A6B480830C11904AB4046FFF7ECF9F1
:1056B00040B9E37904A92046029AFFF747F96FA0A1
:1056C000FAF7B4FD41E02046FEF7BAFE3DE0204681
:1056D000FEF7B6FE2046FFF781FA36E000BF00BFB6
:1056E00000BF00BF2046FFF7D3FD2EE02046FEF7A7
:1056F000A7FE65A0FAF79AFDFFF738FD25E024E044
:105700002046FFF7C5FD65A0FAF790FD1DE0204695
:10571000FFF7BEFD2046FFF7E3FC68A0FAF786FD21
:1057200013E013E009E02046FFF7B2FD2046FFF743
:1057300027FA68A0FAF77AFD07E002212046FEF773
:10574000CFFE6BA0FAF772FD00BF0DE016F1020F5D
:105750000AD13F4C01212046FEF7C2FE6AA0FAF7AB
:1057600065FD6FF001005DE73948401E00780628AE
:1057700053D2DFE800F052031425314200203449AF
:10578000491E0870242201F59471A1F15500FFF71C
:1057900097FE12212E48D230FAF75BFF3EE0002040
:1057A0002B49491E0870012201F5B871A1F18B0047
:1057B000FFF786FE12212648E430FAF74AFF2DE073
:1057C00000202349491E087008464031D0F8802047
:1057D000D330FFF775FE21E000201D49491E0870F7
:1057E0000C2201F5BA71A1F17D00FFF769FE1221CB
:1057F0001748F630FAF72DFF10E000201449491E33
:105800000870412201F5C071A1F17700FFF758FE41
:1058100041214348FAF71DFF00E000BF00BF2846C2
:10582000FEF764FD0020FDE647697A7769747348E6
:10583000616E646C65204572726F72202C20496C19
:105840006C6567616C20506172616D0A0000000038
:105850005D04002020060020476574204F6E6520FF
:105860005061636B6574210A00000000666C61671B
:10587000202578202578200A0000000041636B4431
:10588000617461203A200A007265706F72743A4D3B
:105890004355207265626F6F74210A0041636B206B
:1058A00050524F44554354494F4E5F4D4F4445204D
:1058B00073756363657373200A00000041636B2096
:1058C0004745545F55545420737563636573732063
:1058D0000A00000041636B204745545F4D6F6475BB
:1058E0006C652073756363657373200A00000000A4
:1058F0004552523A20636D6420636F64652065727F
:10590000726F72210A0000004552523A20636865A6
:10591000636B2073756D206572726F72210A0000CF
:105920006505002010B57E200A4908600A48C86055
:10593000084600F0C9FA18B908A0FAF777FC02E0A7
:105940000BA0FAF773FC4FF4E2710E48FAF7A3FECE
:1059500010BD000020060020300600207262437255
:10596000656174652053756363657373200A000075
:105970007262437265617465204661696C64200AD5
:10598000000000005C04002030B587B0054600240C
:10599000062D7CD2DFE805F003305F90BDEA01A858
:1059A000FEF7ACFF0B208DF808008B4890F88410B0
:1059B000D0F88400401C884AC2F88400C8B28DF830
:1059C00009000520FEF7F0F9ADF80600092101A84D
:1059D000FFF718FC8DF80C00092101A800F0C8FBA6
:1059E0000446002C03DA21467CA0FAF71FFC0921AB
:1059F00001A8FFF71BFCEAE004A8FEF77FFF0920DF
:105A00008DF81400744890F88410D0F88400401C7D
:105A1000714AC2F88400C8B28DF815008DF818508C
:105A20000620FEF7C1F9ADF812000A2104A8FFF71D
:105A3000E9FB8DF819000A2104A800F099FB04463F
:105A4000002C03DA214665A0FAF7F0FB0A2104A82E
:105A5000FFF7ECFBBBE004A8FEF750FF09208DF830
:105A600014005D4890F88410D0F88400401C5A4A15
:105A7000C2F88400C8B28DF815008DF818500620C1
:105A8000FEF792F9ADF812000A2104A800E09AE0AE
:105A9000FFF7B8FB8DF819000A2104A800F068FB95
:105AA0000446002C03DA21464CA0FAF7BFFB0A217A
:105AB00004A8FFF7BBFB8AE001A8FEF71FFF132035
:105AC0008DF80800444890F88410D0F88400401CF9
:105AD000414AC2F88400C8B28DF809000520FEF7DB
