:020000040800F2
:10000000880A0020E901000859130008911100082E
:1000100055130008E90A0008E73F00080000000047
:10002000000000000000000000000000D91B0008D4
:10003000B90C00080000000035180008353A000827
:10004000030200080302000803020008030200087C
:100050000302000803020008BD0C0008D50C0008CC
:10006000030200080302000803020008030200085C
:10007000030200080302000803020008030200084C
:10008000030200080302000803020008030200083C
:10009000030200080302000803020008030200082C
:1000A000030200080302000803020008030200081C
:1000B00003020008993A0008353B000803020008D3
:1000C00003020008030200080302000803020008FC
:1000D00003020008E53C000803020008153D000883
:1000E00003020008030200080302000800F002F8FF
:1000F00000F06BF80AA090E8000C82448344AAF157
:100100000107DA4501D100F060F8AFF2090EBAE854
:100110000F0013F0010F18BFFB1A43F0010318473B
:1001200038700000587000000A444FF0000C10F8BE
:10013000013B13F0070408BF10F8014B1D1108BF65
:1001400010F8015B641E05D010F8016B641E01F805
:10015000016BF9D113F0080F1EBF10F8014BAD1C55
:100160000C1B09D16D1E58BF01F801CBFAD505E073
:1001700014F8016B01F8016B6D1EF9D59142D6D3CD
:10018000704700000023002400250026103A28BFF5
:1001900078C1FBD8520728BF30C148BF0B607047F9
:1001A000642900F0B380752900F0B080782900F050
:1001B000E980632900F0C782732900F0CC82002017
:1001C00070471FB51FBD10B510BD00F011FB1146E3
:1001D000FFF7F7FF04F06EF800F02FFB03B4FFF712
:1001E000F2FF03BC03F008FF0948804709480047B5
:1001F000FEE7FEE7FEE7FEE7FEE7FEE7FEE7FEE7D7
:10020000FEE7FEE704480549054A064B7047000033
:10021000393A0008ED00000888040020880A002010
:100220008806002088060020704700000FB40449AB
:1002300010B503AA029800F093FA10BC5DF814FB05
:100240003C0000200FB41CB5074B06AA7B4469464E
:100250000090059800F055FA0020694600F064FA15
:100260001CBC5DF814FB0000D904000070B5044606
:1002700085690068C10601D5302600E02026C00748
:1002800007D070BDD4E9012130469047206A401C58
:1002900020626D1EF6D570BD70B504468569007884
:1002A000C00707D170BDD4E9012120209047206A02
:1002B000401C20626D1EF6D570BD70B50C4605461B
:1002C000012A05D02878800600D5EA69002302E0DB
:1002D000012305E05B1C934202D2E05C0028F9D1C7
:1002E000A869E618C01AA861286A18442862284636
:1002F000FFF7BCFF04E0D5E9012114F8010B90479A
:10030000B442F8D32846FFF7C7FF70BD2DE9F0418E
:100310000646002410687529314616A510D0AFF3A3
:100320000080002802DA404213A507E031688A07FE
:1003300001D512A502E0490704D511A5012401E069
:10034000AFF3008000210A2206F1240709E0B0FB88
:10035000F2FCB0FBF2F302FB1C003030785418467C
:10036000491C0028F3D123462A463046BDE8F04117
:1003700000F068B9000000002D0000002B00000014
:100380002000000070B504460D4621461068AFF30A
:1003900000802188090502D50F4A7A4402E00E4AFE
:1003A0007A440E32002104F1240305E000F00F0628
:1003B0000009965D5E54491C0028F7D1207800237F
:1003C000000704D5702D02D009B102231132204656
:1003D000BDE8704000F036B9F66C00002DE9F05F22
:1003E000894604464FF0000ADFF874B1FB44C0F8B8
:1003F00020A02046E1688847002874D0252806D030
:10040000D4E901219047206A401C2062F1E70026D0
:100410005F462046E16888472028054607DB312DE6
:1004200005D2781910F8200C08B10643F1E7B0079F
:1004300001D526F00406C4F81CA00027C4F818A0B3
:100440002A2D09D0284603F0D0FD38B304EB8708E5
:10045000303DC8F8185019E059F8041B204604EB49
:1004600087029161E1688847012F054618D1E0694C
:10047000002820DA26F020061DE0D8F8180000EB4E
:10048000800005EB40003038C8F818002046E168CD
:100490008847054603F0A9FD0028EED1012F0AD0B8
:1004A0002E2D08D12046E16888477F1C0546022F83
:1004B00046F02006C4DBA069002803DA404246F07B
:1004C0000106A061F00701D026F010066C2D0BD0BC
:1004D000682D09D04C2D39D06A2D35D0742D35D0EA
:1004E0007A2D33D016E038E0E1682F462046884761
:1004F000B842054609D16C2F26D04FF48060E168E0
:10050000064320468847054604E06C2F1AD04FF476
:10051000807006430DB3A5F14100192802D820359B
:1005200046F400664A462946204626604E46FFF7B6
:1005300037FE80B101280BD0F61D26F0070000F130
:10054000080956E74020E4E78020D8E70020D6E7F6
:1005500006F104094DE7284652E7206ABDE8F09FFE
:10056000CC6C0000032A40F2308010F0030C00F045
:10057000158011F8013BBCF1020F624498BF11F8DD
:1005800001CB00F8013B38BF11F8013BA2F1040296
:1005900098BF00F801CB38BF00F8013B11F003030E
:1005A00000F0F080083AC0F0088051F8043B083AA7
:1005B00051F804CBA0E80810F5E7121D5CBF51F814
:1005C000043B40F8043BAFF30080D20724BF11F88E
:1005D000013B11F801CB48BF11F8012B24BF00F8F3
:1005E000013B00F801CB48BF00F8012B70474FF0EA
:1005F000000200B5134694469646203922BFA0E873
:100600000C50A0E80C50B1F12001BFF4F7AF09077E
:1006100028BFA0E80C5048BF0CC05DF804EB89006F
:1006200028BF40F8042B08BF704748BF20F8022BB2
:1006300011F0804F18BF00F8012B704770477047CA
:10064000704770472DE9F0470D469946924604469B
:1006500000F124080168880604D5E06921F0100142
:10066000216000E00120A84201DD471B00E00027D7
:10067000A1697A1902EB0900081AA0612078C00666
:1006800002D42046FFF7F2FD002608E0D4E901215C
:100690001AF806009047206A401C761C20624E45DE
:1006A000F4DB2078C0060AD52046FFF7DFFD06E020
:1006B000D4E9012130209047206A401C2062381E76
:1006C000A7F10107F4DC07E0D4E9012118F80500DF
:1006D0009047206A401C2062281EA5F10105F3DC2A
:1006E0002046FFF7D9FD2078000602D50220BDE89C
:1006F000F0870120FBE7000001694A1C02610878CD
:10070000704700B58FB0CDE9013100210591054951
:100710007944CDE9031011466846FFF75FFE0FB03C
:1007200000BD0000E5FFFFFF0A6802F8010B0A6048
:10073000704710B5436913B1AFF3008001E0FFF7D4
:10074000BCFD012010BD127800F124010A700022C6
:100750004A700122EDE711684FF0FF32E9E700002F
:10076000074B70B50D467B44FFF7CBFF0446284688
:1007700000F03AF810B14FF0FF3070BD204670BD68
:10078000273B000010B5203AC0F00B80B1E81850AC
:10079000203AA0E81850B1E81850A0E81850BFF46B
:1007A000F5AF5FEA027C24BFB1E81850A0E818500A
:1007B00044BF18C918C0BDE810405FEA827C24BF5E
:1007C00051F8043B40F8043B08BF7047D20728BFEC
:1007D00031F8023B48BF11F8012B28BF20F8023B3B
:1007E00048BF00F8012B7047007B00F08000704785
:1007F000754600F02BF8AE4605006946534620F0DA
:100800000700854618B020B5FFF7FCFCBDE8204086
:100810004FF000064FF000074FF000084FF0000BBC
:1008200021F00701AC46ACE8C009ACE8C009ACE86F
:10083000C009ACE8C0098D46704710B50446AFF357
:1008400000802046BDE81040FFF7C8BC0048704754
:100850002804002021B1826842F00102826003E096
:10086000826822F0010282607047000010B50446E1
:100870001248844208D10121401501F019F80021E5
:10088000601501F015F817E00D48844208D10121E8
:10089000001501F00DF80021201501F009F80BE01A
:1008A0000848844208D10121C80301F001F8002161
:1008B0004FF4004000F0FCFF10BD00000024014098
:1008C00000280140003C0140014600208A6802F0F7
:1008D00004020AB1012000E0002070470146C86C04
:1008E00080B270470246002013680B400BB1012014
:1008F00000E000207047014600208A6802F00802EC
:100900000AB1012000E000207047000030B5024627
:100910000020002350680F4C20400D790C6844EAF9
:1009200005242043506090680B4C2040D1E90254CC
:100930002C434D7944EA450420439060D06A20F46A
:1009400070000C7C641EE4B2234340EA0350D06282
:1009500030BD0000FFFEF0FFFDF7F1FFF0B50446EB
:100960000D4600200021092D11DDE068A5F10A06E1
:1009700006EB4607072606FA07F18843A5F10A06A3
:1009800006EB460603FA06F10843E0600CE0206936
:1009900005EB4507072606FA07F1884305EB4506F0
:1009A00003FA06F108432061072A0FDA606B561E2E
:1009B00006EB86071F2606FA07F18843561E06EB4C
:1009C000860605FA06F10843606322E00D2A0FDA75
:1009D000206BD61F06EB86071F2606FA07F1884311
:1009E000D61F06EB860605FA06F10843206310E0E1
:1009F000E06AA2F10D0606EB86071F2606FA07F14C
:100A00008843A2F10D0606EB860605FA06F10843B7
:100A1000E062F0BD816841F008018160704721B15A
:100A2000826842F4A002826003E0826822F4A0029D
:100A300082607047816841F004018160704710B5A1
:100A400000F0A4F900F082F800F0EAFC00F070FC7D
:100A50004FF4165003F0A2FD10BD000000B587B0A2
:100A600001214FF4017000F013FF4FF4004000F03B
:100A7000E3FE0120ADF8040000208DF8070001A975
:100A8000174800F0B7F91748FFF7F0FE0020029072
:100A90008DF80C008DF80D004FF4602004900020BC
:100AA000059001208DF8180002A90E48FFF72EFFCF
:100AB00001210C48FFF7CEFE0A48FFF7ABFF00BF4D
:100AC0000848FFF718FF0028FAD10648FFF7B2FFE1
:100AD00000BF0448FFF7F8FE0028FAD107B000BDB8
:100AE000000801400024014000BFFEE710B50024CB
:100AF00000F0CCF800F046F804E0601CC4B201201D
:100B000003F032FB4FF400510F4800F047FA08B1F0
:100B1000642CF2DB642C01DB012010BD002404E016
:100B2000601CC4B2012003F01FFB4FF400510648C3
:100B300000F034FA08B9642CF2DB642C01DB0120EC
:100B4000EBE70020E9E70000000C014008B50121B7
:100B5000092000F09DFE4FF40050ADF80000102079
:100B60008DF8030002208DF802006946044800F069
:100B700041F94FF40051024800F01BFA08BD000093
:100B8000000C014008B54FF40050ADF800000420FF
:100B90008DF803006946024800F02CF908BD0000FA
:100BA000000C014008B54FF40050ADF800001020D3
:100BB0008DF8030002208DF802006946014800F01C
:100BC00019F908BD000C014070B50024012506E0AC
:100BD0006006040E00F02CF80443681CC5B2082D12
:100BE000F6DD204670BD10B50446FFF77FFFD0B993
:100BF000FFF7EAFF2070FFF7E7FF6070FFF7E4FF01
:100C0000A070FFF7E1FFE070FFF7DEFF20712078B2
:100C100061780844A1780844E17808442179884241
:100C200003D1002010BD0120FCE70120FAE70000FD
:100C300010B5002404E0601CC4B2012003F094FA53
:100C40004FF40051104800F0A9F908B1642CF2DB10
:100C5000002404E0601CC4B2012003F085FA4FF4C4
:100C60000051094800F09AF908B9642CF2DB2820F9
:100C700003F07AFA4FF40051034800F08FF908B1FD
:100C8000012010BD0020FCE7000C014010B5FFF76B
:100C900089FF4FF40051074800F089F9142003F050
:100CA0003DFA4FF40051034800F083F91E2003F091
:100CB0005BFA10BD000C01407047000010B50449FC
:100CC000096808688047012000F010F810BD000096
:100CD0004000002010B50449096848688047022098
:100CE00000F004F810BD0000400000200149086039
:100CF0007047000014040140002123498279002A32
:100D00003AD00A46126803689A430B461A600A1DD5
:100D1000126803689A430B1D1A60027911440A682D
:100D200003681A430A60184A0832126803689A4333
:100D3000154B08331A601A1D126803689A43124B48
:100D40000C331A604279102A0ED11A1F12680368F8
:100D50001A430D4B08331A601A1D126803681A43B0
:100D6000094B0C331A600DE00749427911440A68B7
:100D700003681A430A6005E0027911440A680368AF
:100D80009A430A60704700000004014008B5012141
:100D9000082000F07DFD4FF48050ADF800000420E5
:100DA0008DF803006946024800F024F808BD0000F1
:100DB000000C014030B500228B071C0F0F2303FAF3
:100DC00004F20B4B8C1053F824309343084C8D10D5
:100DD00044F8253023468C1053F824308C07240F18
:100DE00000FA04F42343024C8D1044F8253030BD42
:100DF000080001402DE9F0410246002500260020B0
:100E000000230024002791F803C00CF00F0591F88F
:100E100003C00CF0100CBCF1000F03D091F802C01D
:100E20004CEA050591F800C0BCF1000F31D0146800
:100E300000202BE04FF0010C0CFA00F3B1F800C0D9
:100E40000CEA03069E4220D183004FF00F0C0CFAEF
:100E500003F7BC4305FA03FC4CEA040491F803C011
:100E6000BCF1280F06D14FF0010C0CFA00FCC2F8BF
:100E700014C00AE091F803C0BCF1480F05D14FF04F
:100E8000010C0CFA00FCC2F810C0401C0828D1D399
:100E90001460B1F800C0BCF1FF0F34DD54680020CD
:100EA0002EE000F1080C4FF0010808FA0CF3B1F83D
:100EB00000C00CEA03069E4221D183004FF00F0CC4
:100EC0000CFA03F7BC4305FA03FC4CEA040491F85E
:100ED00003C0BCF1280F05D100F1080C08FA0CF88A
:100EE000C2F8148091F803C0BCF1480F07D100F19B
:100EF000080C4FF0010808FA0CF8C2F81080401CEA
:100F00000828CED35460BDE8F0810000F0B50A4651
:100F1000002300240021002500F00046B6F1004F18
:100F200002D11D4EF16901E01B4E7168C0F303450B
:100F300083B200F44016B6F5401F08D121F070616D
:100F4000154E766826F07066134F7E6012E000F44E
:100F50008016B6F5801F06D1032606FA05F4A143D4
:100F600041F0706106E0460D360103FA06F6B14322
:100F700041F0706122B1460D360103FA06F63143A5
:100F800000F00046B6F1004F02D1034EF16101E0DE
:100F9000014E7160F0BD00000000014002460020DB
:100FA00093680B400BB1012000E0002070474161C5
:100FB00070470161704700000246002111E00B48B4
:100FC00050F8310090420AD8084B481C53F83000C2
:100FD000904204D9184600EBC10000797047481CC4
:100FE000C1B21529EBD300BFFEE70000E46F000893
:100FF0002DE9F0474FF400411548FFF7D8FF4FF4B3
:101000008C7003F0B1F8002000F02CF88246282004
:1010100003F0AAF84FF400410D48FFF7CAFF42F26F
:10102000D05003F0A1F8504604F038FE8046094A3B
:10103000094B04F083FE0646084A094B05F018F8F0
:1010400004460D462046294604F076FBBDE8F087AD
:10105000000C0140C3F5285C8FC2C53F9A9999994D
:101060009999B93F10B50446072301222146094842
:10107000FFF774FC01210748FFF7D1FC00BF0221F4
:101080000448FFF72FFC0028F9D00248FFF726FCA0
:1010900010BD0000002401402DE9F0470446002562
:1010A000002612E0FFF7A4FF8046284605F04CF921
:1010B0008146414605F0C6F8074605F025F9054684
:1010C000052003F02BF8701CC6B2A642EADBB5FB84
:1010D000F4F080B2BDE8F08730B587B005460C4625
:1010E00028480460284802F05FFE012144F2040011
:1010F00000F0CEFB03208DF81A004FF40070ADF81D
:10110000180018208DF81B0006A92048FFF772FE72
:101110004FF48060ADF8180048208DF81B0006A938
:101120001A48FFF767FE6CB125208DF804000320F4
:101130008DF805008DF8060001208DF8070001A844
:1011400000F00CF902950020ADF80C00ADF80E008F
:10115000ADF81000ADF814000C20ADF8120002A993
:10116000094802F0CBFE2CB1012240F2255106487D
:1011700002F09FFE0121044802F009FE002007B0A2
:1011800030BD00003400002000380140000801405C
:1011900000BFFEE710B54FF480710948FFF709FF63
:1011A0004FF400710648FFF704FF4FF40071044844
:1011B000FFF7FDFE4FF480710148FFF7F8FE10BD08
:1011C000000C014010B54FF480710748FFF7F1FEA5
:1011D0004FF400710448FFF7EAFE4FF40071024833
:1011E000FFF7E7FE10BD0000000C014010B54FF402
:1011F00080710448FFF7DDFE4FF480710148FFF76E
:10120000D6FE10BD000C01402DE9F04105462C46EC
:101210004FF480711248FFF7CAFE00261CE02746F3
:1012200007F08007802F04D1B9000D48FFF7C1FEF9
:1012300004E04FF400710A48FFF7B9FE6006040E9F
:101240004FF480710648FFF7B4FE4FF480710448F4
:10125000FFF7ADFE701CC6B2082EE0DBBDE8F081E2
:10126000000C014010B50446FFF794FF7820FFF70B
:10127000CBFFFFF7BBFF0020FFF7C6FFFFF7B6FF6E
:101280002046FFF7C1FFFFF7B1FFFFF79BFF10BD3F
:1012900010B50446FFF77EFF7820FFF7B5FFFFF794
:1012A000A5FF4020FFF7B0FFFFF7A0FF2046FFF7A4
:1012B000ABFFFFF79BFFFFF785FF10BD08B50121CE
:1012C000112000F0E5FA01211648FFF71FFE012169
:1012D000082000F0DDFA4FF40050ADF800001020B7
:1012E0008DF8030003208DF8020069460E48FFF7D1
:1012F00081FD4FF40040ADF8000010208DF8030090
:1013000003208DF8020069460848FFF773FD4FF48B
:1013100000410648FFF74DFE4FF400510248FFF729
:1013200048FE08BD0002300000100140000C0140E2
:1013300008B50121042000F0ABFA0220ADF800004E
:1013400004208DF8030069460148FFF753FD08BDEE
:101350000008014000BFFEE77047000070B50021A3
:1013600000230F22C47804B3154C246804F4E0640D
:10137000C4F5E064210AC1F10403CA40447804FAC8
:1013800003F184781440214309010E4C0678A155DD
:10139000047804F01F050124AC4005786D11AD0000
:1013A00005F1E025C5F8004109E0047804F01F05C7
:1013B0000124AC40044D0678761145F8264070BDF6
:1013C0000CED00E000E400E080E100E002490143B0
:1013D000024A1160704700000000FA050CED00E0C1
:1013E00070B5002418E004F1B000002100F089F984
:1013F0000021084600F085F90021102000F081F955
:10140000002505E00121002000F07BF9681CC5B231
:10141000802DF7DB601CC4B2082CE4DB70BD00003B
:1014200008B50121082000F033FA0121082000F05E
:101430002FFA4FF48070ADF8000010208DF80300F3
:1014400003208DF8020069464448FFF7D3FC4FF4AF
:101450000070ADF8000069464048FFF7CBFC4FF440
:1014600080713E48FFF7A5FD4FF400713B48FFF740
:10147000A0FD642002F052FE0021AE2000F041F9F0
:101480000021084600F03DF90021102000F039F954
:101490000021402000F035F90021B02000F031F9A2
:1014A0000021812000F02DF90021FF2000F029F912
:1014B0000021A12000F025F90021A62000F021F94B
:1014C0000021A82000F01DF900213F2000F019F9AB
:1014D0000021C82000F015F90021D32000F011F9F7
:1014E0000021084600F00DF90021D52000F009F98F
:1014F0000021802000F005F90021D82000F001F93A
:101500000021052000F0FDF80021D92000F0F9F8B5
:101510000021F12000F0F5F80021DA2000F0F1F8C8
:101520000021122000F0EDF80021DB2000F0E9F8A6
:101530000021302000F0E5F800218D2000F0E1F8D6
:101540000021142000F0DDF80021AF2000F0D9F8D0
:10155000642002F0E3FDFFF743FF08BD000C0140EB
:1015600070B504460D4605F1B000002100F0C9F841
:10157000102141EA1410002100F0C3F804F00F001C
:10158000002100F0BEF870BD00B599B0194883780D
:10159000427819A16846FEF755FE10236A460021DD
:1015A000084600F091F813488379C27815A168467F
:1015B000FEF748FE10236A460221002000F084F85E
:1015C0000C48027913A16846FEF73CFE10236A46D8
:1015D0000421002000F078F8064842790FA16846FF
:1015E000FEF730FE10236A460621002000F06CF85A
:1015F00019B000BD48000020543D256420483D2519
:1016000064000000666C616D653D2564204D513DB0
:1016100025640000504D3D2564000000434F323DDD
:10162000256400002DE9F04707460E46904699468E
:1016300000250024A8F12000C5B27F2F02DD00277D
:10164000B01CC6B2B9F1100F24D131463846FFF7AD
:1016500087FF002408E004EB0511194A505C0121C2
:1016600000F04FF8601CC4B2082CF4DB701CC1B24F
:101670003846FFF775FF002409E004EB0511083137
:101680000F4A505C012100F03CF8601CC4B2082CE9
:10169000F3DB12E031463846FFF762FF00240AE030
:1016A00005EB4501074A02EB4101085D012100F00D
:1016B00028F8601CC4B2062CF2DBBDE8F0870000FD
:1016C000846700085C6500082DE9F04104460F4678
:1016D0001546984600260FE0AA5D43463946204647
:1016E000FFF7A0FF04F10800C4B2782C02DD00244B
:1016F000B81CC7B2701CC6B2A85D0028ECD1BDE80A
:10170000F08170B504460D461DB1E0B2FFF7C0FD93
:1017100002E0E0B2FFF7A6FD70BD00002DE9F04148
:1017200004460D4616461F460C49C86A80474021AC
:101730000B48FEF75CFF0B480580028821460848ED
:10174000FEF710FF70B20849087008480770034898
:10175000416B4FF47A708847BDE8F0810865000856
:101760009C01002000000020030000200400002055
:1017700010B50949C86A804700BF084800780428A6
:1017800008DD40F21112064906A0FEF74FFD08A041
:10179000FEF74CFD00BF10BD0865000830000020BA
:1017A000FD6400085B257328292D25645D00000079
:1017B000B7A2CBCDB4EDCEF30D0A000010B50649AB
:1017C000C86A804705A0FEF731FD0348416B4FF41E
:1017D0007A70884710BD000008650008B5C8B4FDE0
:1017E000BDD3CAD5CAFDBEDD2E2E2E2E2E2E0D0A3D
:1017F0000000000010B50349C86A804702A0FEF748
:1018000015FD10BD08650008B7A2CBCDB3C9B9A6B8
:101810000D0A000010B50349C86A804702A0FEF710
:1018200005FD10BD08650008B7A2CBCDB3ACCAB1A9
:10183000210D0A007047000001460020034A50684D
:1018400020F4404008435060704700000010024000
:1018500029B1064AD2690243044BDA6104E0034A23
:10186000D2698243014BDA617047000000100240E8
:1018700029B1064A12690243044B1A6104E0034A83
:1018800012698243014B1A61704700000010024048
:1018900029B1064A92690243044B9A6104E0034A63
:1018A00092698243014B9A61704700000010024028
:1018B00029B1064AD2680243044BDA6004E0034AC5
:1018C000D2688243014BDA6070470000001002408A
:1018D00030B500210022002400232D4D6D6805F055
:1018E0000C0121B1042905D0082923D105E0294D97
:1018F000056022E0274D05601FE0254D6D6805F469
:101900007012234D6D6805F48034022505EB924278
:101910001CB9214D554305600BE01D4D6D6805F464
:1019200000351DB11C4D5543056002E0194D55436E
:10193000056002E0174D056000BF00BF144D6D68E3
:1019400005F0F0010909154D6B5C0568DD40456047
:101950000F4D6D6805F4E061090A104D6B5C456838
:10196000DD4085600A4D6D6805F46051C90A0B4D74
:101970006B5C4568DD40C560054D6D6805F4404110
:10198000890B074D6B5CC568B5FBF3F5056130BD90
:101990000010024000127A0000093D001C000020E7
:1019A0002C0000200348C179807901EB0020024916
:1019B00008707047C00200205200002010B54FF49C
:1019C000FA7002F0ABFB00F057F800F041F800F0BD
:1019D00065F8FFF7E7FF1348FFF705F9114880782E
:1019E000114948700F480078887010480078C87016
:1019F0000F48007808710F48007848710E48007849
:101A000088710E480721826A074890470CA0FEF7AC
:101A10000DFC0A48416B4FF47A7088470AA0FEF724
:101A200005FC10BD53000020480000204F0000209E
:101A300051000020520000205000002008650008DE
:101A400031313131310000003232323232000000A7
:101A500010B54FF480510648FFF7A0FA18B90120DD
:101A60000449087002E000200249087010BD00001F
:101A7000000C01404F00002010B502210548FFF77F
:101A80008DFA18B901200449087002E000200249CB
:101A9000087010BD000801405000002010B505205E
:101AA000FFF7FAFA0149087010BD0000510000204C
:101AB0002DE9F05F092000F097FF8246062000F034
:101AC00093FF4FEA004B072000F08EFF4BEA002BFC
:101AD000082000F089FF4BEA0009484604F0DEF8D0
:101AE000074600221E4B04F029F9054604F092F83F
:101AF00004460021092001F0ABFE3B2000F074FFFA
:101B000000F0BF0040F0400529463B2001F0A0FE58
:101B100000BF3B2000F068FF00F020002028F8D034
:101B2000104801F097F83B2000F05EFF00F0BF0086
:101B300040F0400529463B2001F08AFE00BF3B20D3
:101B400000F052FF00F020002028F8D05146092074
:101B500001F07EFE204601F07DF8BDE8F09F000018
:101B600080844E4000A1BC3321B1028842F0400283
:101B7000028004E002884FF6BF731A40028070476B
:101B80000246002013890B400BB1012000E0002029
:101B900070470146888970478181704710B50022DF
:101BA000028802F441520B884C8823438C882343DB
:101BB000CC8823430C8923434C8923438C892343BA
:101BC000CC8923431A430280838B4FF2FF74234056
:101BD00083830B8A038210BD7047704770470146AC
:101BE0000120704710B50446A0B202F097FA10BD6C
:101BF0000148007870470000CC0300202DE9F34F26
:101C00009FB000201E9000BF00BF00BF00BF00BFFC
:101C100000BF00BF1F9810B101286AD16AE0934944
:101C2000886904F03BF8CDE90A01209804F036F801
:101C3000CDE90601302000F0D7FE20F0F90010B108
:101C400000208B4901E000200146CDE90401272056
:101C500000F0CAFE20F0F800401C8449898B08443B
:101C6000019004F004F8CDE902018048807F01284A
:101C700002D10020034601E000207D4B0246CDE961
:101C80000003DDE9020103F089FD8046DDE904235C
:101C900003F084FD0646DDE9062303F07FFD0446DC
:101CA0000D46724890F82000012803D100204FF023
:101CB000804101E000200146064632460B462046A0
:101CC000294603F06BFD824600226A4B04F036F889
:101CD000CDE90801DDE90A2303F014FE0022664B7A
:101CE000CDE90C0104F02AF8CDE90E0102F0ACFBBD
:101CF0001E90B6E000210C460D465C48C06B0728DC
:101D000004D0082805D0092809D105E000245B4D3E
:101D100005E000245A4D02E000245A4D00BF00BFE8
:101D2000524991F84020012101FA02F003F09FFF8F
:101D3000064632460B462046294603F0E3FDCDE930
:101D40001C0100204A49DDE91C2303F0DBFDCDE93D
:101D50001A014649B1F8460003F0A0FF8046002270
:101D6000494B03F01BFD0646DDE91A2303F0E6FFAD
:101D7000CDE918013D4991F84510081D03F077FFA2
:101D8000CDE90E013949096C8A00384991F84410AF
:101D9000002901DD022100E00021501A03F07EFF3E
:101DA000CDE90C012099CA003049096C042303FBDA
:101DB00011211C312D4A92F84A20102303FB0212F4
:101DC0002A4991F8481009B1142100E00021501A65
:101DD00003F064FF8246DDE90C2303F093FD064621
:101DE00002F00CF98046DDE90E2303F0A7FFCDE9F0
:101DF000160100221346DDE9160104F09DF802D217
:101E0000DDE9160101E000200146064632460B4698
:101E10000020184903F0C2FCCDE91401DDE91A23C2
:101E2000DDE9140103F08AFFCDE91201DDE9122397
:101E3000DDE9180103F0B2FCCDE9100100220E4BE0
:101E4000DDE9100103F07AFF0646104A104B03F05B
:101E5000A5FC804602F0AEF9824603F0DBFE1E9040
:101E600000BF00BF1E9821B0BDE8F08FCC0300205A
:101E70000000F03F0000204000408F408084FE4082
:101E800080840E4180841E41000011402B8716D9AA
:101E9000CEF7EF3F70B505461648056001F0C2FC6D
:101EA00000F030F800F0F6FDFFF702FE002000F031
:101EB00053FF114800F070F8002412E004EB4401D5
:101EC0000E4A505C00F008FF04EB44020B4B1A442E
:101ED000917804EB44021A44507801F0B9FC601C7C
:101EE000C4B2102CEAD3002000F0F6FE0020044912
:101EF000087070BD7C01002080010020B46F0008D4
:101F0000CC03002000B587B001211C20FFF7C0FCE6
:101F100003208DF81A001020ADF818008DF81B0072
:101F200006A91B48FEF766FF01210803FFF7B0FC76
:101F300018208DF81B00E020ADF8180006A9144801
:101F4000FEF758FF0020ADF804004FF48270ADF8A2
:101F500006000020ADF808000220ADF80A000120BC
:101F6000ADF80C004002ADF80E002020ADF81000D6
:101F70000020ADF812000720ADF8140001A90548B3
:101F8000FFF70CFE01210348FFF7EEFD07B000BD8F
:101F900000080140003001401FB504462A48046093
:101FA00001210846FFF774FC01211C20FFF770FC9B
:101FB00003208DF8020028208DF803000120ADF8E1
:101FC000000069462148FEF715FF00210120FEF7B9
:101FD000F1FE0120029000208DF80C0008208DF801
:101FE0000D0001208DF80E0002A8FEF785FE0620E8
:101FF0008DF8040002208DF8050003208DF80600FE
:1020000001208DF8070001A8FFF7A8F90120FEF7CD
:102010006DFE0220ADF8000069460C48FEF7EAFEAE
:1020200001210846FEF7C6FE0220029002A8FEF734
:1020300063FE07208DF8040001A8FFF78FF9022046
:10204000FEF754FE1FBD000040000020000C0140C0
:102050002DE9F04106460C4615460027304600F0B3
:102060003BFE204600F0F6FD052000F075FE012045
:10207000FFF7B8FD304600F0E5FC074601F0A6F991
:10208000AF4202DD0020BDE8F0810120FBE7000047
:102090002DE9F04F93B0002011908246F948007866
:1020A000012802D002287DD101E200F027FDF54889
:1020B000407810B1012876D143E1F24890F8200031
:1020C000012871D13F2000F08FFC11909DF8440051
:1020D00000F0020002287DD00B213E2001F0B8FB69
:1020E00010213F2001F0B4FB00F008FDE54890F816
:1020F000220028B901F08EFB0020E24908704FE071
:102100000D2000F071FC40F0400421460D2001F04C
:102110009FFBDC49886903F0C1FDCDE90801272058
:1021200000F062FC20F0F80B584603F0A0FD0022FE
:10213000D54BCDE9000103F031FB04460D46D149F2
:10214000888B03F0ABFD064622462B4603F026FBA8
:102150000022CE4BCDE9020103F020FB0022CC4B44
:10216000CDE9040103F0EAFDCDE90601DDE908232C
:1021700003F0C8FB0022C74BCDE90A0103F0DEFDE6
:10218000CDE90C0101F03AFF80460022C24B03F07A
:1021900005FBCDE90E0103F03DFD109001F02CFB95
:1021A000BE4802E0A1E17FE114E0006838B1BB481D
:1021B0000068006918B1B9490968086980470020BA
:1021C000B04981F828000021AE4880F829108186A6
:1021D00041866AE1AB48408E40BBAA48808E28BB4E
:1021E000A848807F28B90121A648323000F021FCA0
:1021F00004E0322000F0F8FBA2494886A14A92F898
:10220000323092F834209A1AD1B29E4A928EA44B60
:10221000D01800F00EFC9B48418E808E091A994818
:10222000808E084481B29748818616E0954A92F8DC
:10223000323092F834209A1AD1B2924A928E984B48
:10224000D01800F0F6FB8F48418E808E091A8D4819
:10225000808E084481B28B4881868A4890F822009B
:10226000002847D187490870886903F017FDCDE938
:102270000801272000F0B8FB20F0F80B584603F0C7
:10228000F6FC06460022804B03F088FACDE90001F7
:102290007C49888B03F002FD8046DDE9002303F0D2
:1022A0007DFA0022794BCDE9020103F077FA002292
:1022B000774BCDE9040103F041FDCDE90601DDE9ED
:1022C000082303F01FFB04460022724B03F036FD87
:1022D000CDE90A0101F092FE00226F4BCDE90C011D
:1022E00003F05CFACDE90E0103F094FC109001F0CC
:1022F00083FA08E00D2000F077FB40F0400421460F
:102300000D2001F0A5FA00F0F9FB6448006868B1FF
:1023100062480068806848B15A4890F92A20418E86
:102320005E480068002384685D48A0470020554946
:1023300081F828000021534880F8291081864186C1
:10234000B3E000244021122001F082FA122000F0B4
:102350004BFB11909DF8440000F02000202818D17C
:102360002021122001F074FA464890F84E0010B96E
:1023700000204449087000F0C1FB4848006838B1AB
:1023800046480068006918B14449096808698047EF
:102390008BE0192000F028FB40B23A4981F8540044
:1023A000084690F8540000F0800040B1084690F8CC
:1023B0005400C043401CC0F38504644204E031482B
:1023C00090F85400C0F385041A2000F00DFB8246FB
:1023D000002C18DA2B4840683249884209D9AAF102
:1023E0009D0000EB2A10204401B22648A0F85610A8
:1023F0001FE0AAF1A40000EB2A10204401B22148FA
:10240000A0F8561015E01F4840682649884208D9B0
:10241000AAF19D0000EB2A1001B21A48A0F856104C
:1024200007E0AAF1A40000EB2A1001B21548A0F8B9
:102430005610132000F0D8FA124981F858000846C7
:1024400090F85810164800F0F4FA0E4890F84E0034
:1024500010B900200B49087000F050FB0F480068CD
:1024600078B10E480068806858B1064890F9543039
:10247000B0F9562090F85810084800688568084858
:10248000A84712E0CC0300200000F03F00002440E9
:102490000000204000408F40000010407C010020E0
:1024A000CC02002040DD4A1F00BF00BF1EE001F04B
:1024B000C7F91048407838B1012804D1082112200A
:1024C00001F0C6F900BF00BF00200A4908700A48A1
:1024D000006838B108480068006818B10649096802
:1024E0000868804700BF00BF00E000BF00BF13B016
:1024F000BDE8F08FCC0300207C01002010B55E48C1
:102500000078012802D002287ED163E05A48407842
:1025100010B101285BD145E05748408E80B956483C
:10252000808E68B95448807F28B9012152483230E2
:1025300000F07FFA04E0322000F056FA4E49488657
:102540004D48418E808E091A4B4890F836008142E2
:1025500010DD494A92F83610928E484BD01800F0A0
:1025600068FA4548818E90F83600084481B24248A6
:10257000818616E0404A92F8323092F834209A1A56
:10258000D1B23D4A928E3D4BD01800F052FA3A48F3
:10259000418E808E091A3848808E084481B23648B0
:1025A000818615E000F0AAFA8021122001F050F98E
:1025B0000020314908703248006838B1304800685E
:1025C000C06818B12E490968C868804700E000BF9C
:1025D00000BF4EE02848407810B1012845D133E0D3
:1025E0002548418E808E091A234890F83700814291
:1025F00012DD214A92F83710928E204BD01801F04C
:1026000049F91D48818E00E032E090F83700084417
:1026100081B21948818616E0174A92F8323092F852
:1026200034209A1AD1B2144A928E144BD01801F069
:1026300031F91148418E808E091A0F48808E084466
:1026400081B20D48818611E001F0FAF800200A49B4
:1026500008700B48006838B109480068406818B134
:10266000074909684868804700E000BF00BF00E0F4
:1026700000BF00BF10BD0000CC030020CC02002032
:102680007C0100202DE9FC4749480078012802D050
:1026900002287CD160E04648407810B1012858D12A
:1026A0003CE0434890F82800012836D1404890F893
:1026B000290090BB01F0AEF801213D4880F82910B7
:1026C000112000F091F94010404241B2384880F8A2
:1026D0002A101C2000F088F982461B2000F084F9A3
:1026E0004AEA0029484603F0C2FA074603F062FAB4
:1026F000044603F0BCFA054600222E4B03F01EFBF5
:10270000CDE9000103F056FA2949C8620C2000F017
:102710006BF94109264880F830101BE0244890F8F6
:102720004B00012814D10221122001F091F8224817
:10273000006868B120480068406948B11C2000F07A
:1027400053F900F03F041C4800684169204688475F
:1027500000E000BF00BF27E01548407810B1012815
:102760001ED100E01DE0124890F84B00012816D160
:102770000221122001F06CF80F48006878B10E4871
:102780000068406958B11C2000F02EF900E00AE012
:1027900000F03F040848006841692046884700E08F
:1027A00000BF00BF00E000BF00BFBDE8FC87000025
:1027B000CC03002080844E407C01002010B51948D5
:1027C000407810B1012829D100E028E0122000F063
:1027D0000BF900F0010080B10521122001F038F85A
:1027E00011480068C8B1104800688069A8B10E4857
:1027F00000688169012088470FE00421122001F060
:1028000027F80948006840B107480068806920B18E
:102810000548006881690020884700E000BF00BFCC
:1028200010BD0000CC0300207C0100200948407846
:1028300010B101280AD108E0064890F8280018B91C
:102840000120044981F8280001E000E000BF00BF3A
:1028500070470000CC0300202DE9F04F91B04B48A9
:102860000078012802D002287AD17AE047484078DF
:10287000002869D1454981F828000021434880F8A3
:102880002910818641860B213E2000F0E1FF1021B6
:102890003F2000F0DDFF3D4890F8220001284ED196
:1028A0000D2000F0A1F840F0400421460D2000F07A
:1028B000CFFF3649886903F0F1F9CDE90A012720F5
:1028C00000F092F820F0F800019003F0D0F9804673
:1028D00000222F4B02F062FFCDE902012B49888BC9
:1028E00003F0DCF90646DDE9022302F057FF00227F
:1028F000284BCDE9040102F051FF0022264BCDE91F
:10290000060103F01BFACDE90801DDE90A2302F014
:10291000F9FF04460022214B03F010FA824601F031
:102920006DFB00221E4BCDE90C0102F037FFCDE913
:102930000E0103F06FF9109000F05EFF04E000203C
:102940001249087000F066FF1648006838B1154853
:102950000068C06818B113490968C868804710E06A
:102960000EE00020094908700E48006838B10D4893
:102970000068406818B10B4909684868804700E062
:1029800000BF00BF11B0BDE8F08F0000CC030020F5
:102990000000F03F000024400000204000408F4035
:1029A000000010407C01002070B50025012000F0DF
:1029B00093F9FF21112000F04BFF052000F0CCF926
:1029C00000240BE00120FFF70DF92C2000F00CF89B
:1029D00000F00100A0400543601CC4B2202CF1DBD4
:1029E00000F0F4FC284670BD38B504460122694663
:1029F000204600F003F89DF8000038BD2DE9F041B5
:102A000005460E461746002000F0C2FF05F07F0085
:102A100000F0CEFF002405E0002000F0C9FF305593
:102A2000601CC4B2BC42F7DB012000F0B1FFBDE87E
:102A3000F08170B504460D462A4621460020FFF776
:102A4000DDFF70BD70B50446002514B1012C17D10F
:102A500005E01120FFF7C8FF4010454213E00B4886
:102A600040680B49884205D91B20FFF7BDFFA0F144
:102A70009D0504E01B20FFF7B7FFA0F1A40502E0CD
:102A80004FF0FF3500BF00BF284670BDCC030020CB
:102A900040DD4A1F08B501211C20FEF7F9FE032086
:102AA0008DF802000820ADF8000010208DF803001A
:102AB00069460A48FEF79EF908210848FEF777FAAA
:102AC000012001F02BFB04208DF803006946034828
:102AD000FEF790F9062001F021FB08BD0008014037
:102AE00010B5044604EB84010122C2EB410188B217
:102AF00041F61F4100F0E4FF10BD000010B50021B9
:102B0000014801F039F810BD0004004073B50446D7
:102B100000254548407810B1012839D139E000211D
:102B2000414881869DF804104186807F20B90121AB
:102B300001A800F0AFFE04E09DF80410322000F080
:102B400087FE9DF80400002809DD9DF80400402858
:102B500005DC9DF80410344880F8371009E09DF832
:102B6000042021463148FDF7FDFC20212E4880F845
:102B700037102D4890F83710204600F08BFE2A4879
:102B8000818E90F83700084481B227488186456AD3
:102B900045E0254890F84D0001280DD13320FFF77E
:102BA00023FF00F0BE063146332000F051FE19210C
:102BB0003B2000F04DFE0DE03320FFF715FF00F045
:102BC000BE00461C3146332000F042FE1D213B2052
:102BD00000F03EFE9DF80410134880F858109DF850
:102BE0000410222000F034FE00210E2000F030FE00
:102BF00000210D2000F02CFE0120FFF7F5FE20F053
:102C0000F80020B900F0F0FB0120FEF7EBFF9DF883
:102C10000410204600F03EFE0348056D00BF00BFD3
:102C2000284600F0EFFB7CBDCC030020CC02002046
:102C30007047000000B506490978814207D0044971
:102C4000087010B9FEF7CAFF01E0FEF7C6FF00BD2D
:102C5000980100202DE9F04104460F4844602046C9
:102C600003F01CF8054600220C4B02F04BFE074611
:102C700002F0D0FF0446C4F30741062000F0E8FD4F
:102C8000C4F30721072000F0E3FDE1B2082000F0C3
:102C9000DFFDBDE8F0810000CC03002080844E40C1
:102CA00070B504460D46204600F016F814B1012C0C
:102CB0000DD107E00748807F18B92946322000F07F
:102CC000C7FD04E02946232000F0C2FD00BF00BF7D
:102CD00070BD0000CC03002070B504461D4840784C
:102CE000A04200D170BD1B484470407810B101284B
:102CF00015D000BF002000F02FF80120FFF774FE70
:102D000000F07F052946012000F0A2FD00214020AF
:102D100000F09EFD3021412000F09AFD16E00020D9
:102D200000F01AF80120FFF75FFE00F07F0040F08E
:102D300080052946012000F08BFD0021402000F095
:102D400087FD0021412000F083FD00BF00BF00BFD0
:102D5000C8E70000CC03002070B504461CB9012070
:102D6000FFF768FF0BE00020FFF764FF032C03D19F
:102D70000120FFF75DFF02E00020FFF759FF01206F
:102D8000FFF732FE00F0F80040EA04052946012072
:102D900000F05EFD70BD00002DE9F04F93B00446D9
:102DA0004FF00009D148407810B1012830D130E00F
:102DB000CE4890F822904020FFF716FE00F0030066
:102DC00040F00C052946402000F042FD4120FFF76D
:102DD0000BFE00F03E0040F0C000451C294641209B
:102DE00000F036FD3520FFF7FFFD00F03F01BF4842
:102DF00080F836101E210D2000F02AFD0020BB496E
:102E000081F828000021B94880F829108186418680
:102E1000FCE0B64890F84D00012810D13320FFF7B0
:102E2000E3FD00F0BE0040F04000451C2946332081
:102E300000F00EFD19213B2000F00AFD0DE03320CB
:102E4000FFF7D2FD00F0BE00451C2946332000F0FC
:102E5000FFFC1D213B2000F0FBFCA448C06B0928AF
:102E60007BD23120FFF7C0FD00F07F0529463120DD
:102E700000F0EEFC0021302000F0EAFC9B48C06B23
:102E8000092819D2DFE800F005192D41556A7E8323
:102E9000880048212F2000F0DBFC9449486802F0AC
:102EA000FDFE07460022924B02F078FC054602F038
:102EB000B1FE8246FFF7CEFE73E044212F2000F0E2
:102EC000C7FC8A49486802F0E9FE07460022894BA0
:102ED00002F064FC054602F09DFE8246FFF7BAFE52
:102EE0005FE044212F2000F0B3FC8049486802F0E5
:102EF000D5FE07460022804B02F050FC054602F04A
:102F000089FE8246FFF7A6FE4BE044212F2000F009
:102F10009FFC7649486802F0C1FE07460022774BC5
:102F200002F03CFC054602F075FE8246FFF792FE79
:102F300037E044212F2000F08BFC6C49486802F0F8
:102F4000ADFE074600226E4B02F028FC054602F05B
:102F500061FE8246FFF77EFE23E023E044212F201E
:102F600000F076FC6149486802F098FE05460022B0
:102F7000644B02F013FC074602F04CFE8246FFF75A
:102F800069FE0EE040212F2000F062FC09E04021A4
:102F90002F2000F05DFC04E040212F2000F058FCC1
:102FA00000BF08E03120FFF71FFD40F080052946F3
:102FB000312000F04DFC4D4890F84E9090F84B00B9
:102FC00001280DD11D21112000F042FC4020FFF707
:102FD0000BFD00F033052946402000F039FC0CE0E1
:102FE0001F21112000F034FC4020FFF7FDFC00F011
:102FF0003F052946402000F02BFC00210F2000F067
:1030000027FC00210D2000F023FC00BF00BF4FF47F
:1030100080713D48FDF7EBFA01203449087014B186
:103020002046FFF75DFD3148407800284DD105204E
:10303000FFF792FEB9F1000F51D12C49886902F0D7
:103040002DFECDE908012720FFF7CEFC20F0F80087
:10305000019002F00CFE054600222C4B02F09EFB74
:10306000074688462149888B02F018FE82463A4678
:10307000434602F093FB0022254BCDE9020102F00A
:103080008DFB0022234BCDE9040102F057FECDE970
:103090000601DDE9082302F035FC00221E4BCDE9D4
:1030A0000A0102F04BFECDE90C0100F0A7FF00225F
:1030B0001A4BCDE90E0102F071FBCDE9100102F0CF
:1030C000A9FD129000F098FB09E0B9F1010F03D1BE
:1030D0000520FFF741FE02E00620FFF73DFE12202B
:1030E000FFF782FC13B0BDE8F08F0000CC03002096
:1030F0000082BE40005AC4400082CE408057D44077
:103100008084DE40C058E440CC0200200000F03F44
:10311000000024400000204000408F40000010408C
:103120002DE9FF4F85B00D4614469946DDF868B08D
:10313000DDE916A8159F139E0598FFF7CDFD0598AC
:1031400010B1012860D160E09D48056184619C490F
:10315000129848610846877780F81FA080F8208081
:1031600080F821B01B9881F822000846868320460B
:1031700002F094FD02460B46CDE900010020914982
:1031800002F0C0FBCDE9020102F044FD84B2210A45
:10319000022000F05DFBE1B2032000F059FB28465D
:1031A000FDF70AFF01460390122000F051FB129830
:1031B000FDF702FF01460390132000F049FB310A9E
:1031C000252000F045FBF1B2262000F041FB012F45
:1031D00004D15146322000F03BFB03E0FF213220B6
:1031E00000F036FB3020FFF7FFFB00F06F00012FEF
:1031F00001D1002100E08021084340EA0810014687
:103200000390302000F024FBD6E0022D01D900BF4E
:10321000FEE7ED1D6A48C563046480F84590A0F898
:10322000466080F8487080F849A080F84A80644978
:10323000189881F84B00199881F84C00084680F8DE
:103240004DB01B9881F84E000C2C01D90C2402E0E3
:10325000062C00D20624072D03D10B2C05D00C2CF4
:1032600003D0082D06D10C2C04D10121544880F83C
:10327000441003E00021524880F844101D20FFF75D
:10328000B3FB002040EA051040EA49003843C0B2D1
:10329000014603901D2000F0DBFA1E20FFF7A4FB7F
:1032A00000F0080040EA041040EA88000322149964
:1032B00002EA21210843C0B2014603901E2000F01B
:1032C000C7FA2620FFF790FB00F0F7013C4890F882
:1032D000440041EAC000C0B201460390262000F03D
:1032E000B7FA1498C1B21F2000F0B2FA310A2020B8
:1032F00000F0AEFAF1B2212000F0AAFA012F03D1BA
:103300005146222000F0A4FA2D4890F84B000128E5
:1033100011D14420FFF768FB00F07F0040F08000EF
:1033200001460390442000F093FA254890F84C1091
:10333000242000F08DFA092D0DD121484068224942
:10334000884208D90221362000F082FA64213A200E
:1033500000F07EFA0EE0092D08D10221362000F09F
:1033600077FA7F213A2000F073FA03E00321362038
:1033700000F06EFA062C0FD13120FFF735FB00F07C
:10338000F800401D01460390312000F061FA0C2145
:10339000372000F05DFA0EE03120FFF725FB00F04A
:1033A000F800C01C01460390312000F051FA0A21B8
:1033B000372000F04DFA00BF00BF09B0BDE8F08F24
:1033C000CC03002080847E4140DD4A1F10B5FFF70A
:1033D00095FB00F035FA0020FFF7BEFC0020014904
:1033E000087010BDCC03002010B5FFF787FB00F07C
:1033F00027FA0120FFF7B0FC00200149087010BD3A
:10340000CC03002070B504462A48407810B101284A
:1034100042D11CE04020FFF7E7FA00F0030040F043
:1034200010052946402000F013FA4120FFF7DCFA8E
:1034300000F03E052946412000F00AFA3520FFF74A
:10344000D3FA00F03F011B4880F8361024E01948F9
:1034500090F84B0001280FD1F521112000F0F8F968
:103460004020FFF7C1FA00F0330040F04005294644
:10347000402000F0EDF90EE0F721112000F0E8F90E
:103480004020FFF7B1FA00F03F0040F04005294628
:10349000402000F0DDF900BF00BF022005490870A0
:1034A0002046FFF71DFB0320FFF756FC1220FFF715
:1034B0009BFA70BDCC0300202DE9FF4F85B00C4670
:1034C00090461E46DDE915AB149F129D4FF0000992
:1034D000002004900598FFF7FFFB0920FFF784FA0E
:1034E00081464D20FFF780FA04904FF0800909F0E3
:1034F000800080282DD1112C05DD049800F0F80003
:10350000C01D049004E0049800F0F800001D049031
:10351000049800F0070007280DD1052C00DA0524D7
:10352000142C00DD142409F0F000611F01F00F01DC
:1035300040EA01091CE0022C00DA0224112C00DD13
:10354000112409F0F000A11E01F00F0140EA010969
:103550000EE0B4F1FF3F01DA4FF0FF340E2C00DD36
:103560000E2409F0F000611C01F00F0140EA01098E
:103570004946092000F06CF94D20049900F068F9E3
:10358000059810B101285DD15DE087480472C0F84C
:103590000C8006618561878380F81EA080F820B0CA
:1035A0008149199881F821001A984862404602F032
:1035B00075FB00227D4BCDE9000102F0A3F9CDE9B6
:1035C000020102F027FB1FFA80F84FEA18210420BD
:1035D00000F03EF908F0FF01052000F039F9284617
:1035E00002F05CFB02460B46CDE900010020704969
:1035F00002F088F9CDE9020102F00CFB85B2290A3C
:10360000022000F025F9E9B2032000F021F9390A7F
:10361000252000F01DF9F9B2262000F019F930201C
:10362000FFF7E2F900F06F00BAF1010F01D10021BC
:1036300000E08021084340EA0B100146039030204F
:1036400000F006F9ACE0584880F83840022E01D965
:1036500000BFFEE7F61D5448C6630564524913983F
:1036600081F845000846A0F8467080F848A01798F1
:1036700081F84B00189881F84C00084680F84AB051
:10368000199881F84D001A9808650C2D01D90C2560
:1036900002E0062D00D20625072E03D10B2D05D002
:1036A0000C2D03D0082E06D10C2D04D101213E484B
:1036B00080F8441003E000213B4880F844103A4869
:1036C00090F84B00012811D14420FFF78DF900F04C
:1036D0007F0040F0800001460390442000F0B8F8DD
:1036E000314890F84C10242000F0B2F81D20FFF76C
:1036F0007BF9002040EA0611139841EA400040EAB5
:103700000A00C0B2014603901D2000F0A1F81E205F
:10371000FFF76AF900F00B0040EA051040EA8B0061
:10372000C0B2014603901E2000F092F82620FFF759
:103730005BF900F0F7011C4890F8440041EAC00032
:10374000C0B201460390262000F082F8390A2020FA
:1037500000F07EF8F9B2212000F07AF8062D0FD1A2
:103760003120FFF741F900F0F800401D01460390B9
:10377000312000F06DF80C21372000F069F80EE0E0
:103780003120FFF731F900F0F800C01C014603902A
:10379000312000F05DF80A21372000F059F800BF11
:1037A00000BF09B0BDE8F08FCC03002080844E40FC
:1037B00080847E4110B50F48407810B1012815D1A2
:1037C00000E014E0FA21112000F042F84020FFF759
:1037D0000BF900F03F042146402000F039F80320A7
:1037E000044908700720FFF7B7FA00E000BF00BFE8
:1037F00010BD0000CC03002010B5044604EB84018A
:103800000122C2EB410188B241F61F4100F058F994
:1038100010BD000010B50021014800F0ADF910BD49
:1038200000040040704710B5044604EB84010122F7
:10383000C2EB410188B241F61F4100F041F910BDD1
:1038400010B50021014800F097F910BD00040040B8
:1038500013B50446012201A9204600F001F81CBD61
:103860002DE9F04105460E461746002000F090F87D
:1038700045F0800000F09CF8002404E0305D00F08A
:1038800097F8601CC4B2BC42F8DB012000F080F85D
:10389000BDE8F08170B504460D462A462146002059
:1038A000FFF7DEFF70BD10B500F002F810BD00009C
:1038B0000CB50020019000903348006840F480303F
:1038C0003149086000BF3048006800F400300090C3
:1038D0000198401C0190009818B90198B0F5A06FAC
:1038E000F1D12948006800F4003010B101200090A7
:1038F00001E0002000900098012843D1234800688F
:1039000040F01000214908600846006820F00300DC
:1039100008600846006840F0020008601A484068E5
:10392000194948600846406848600846406840F4C5
:10393000806048600846406820F47C104860084673
:10394000406840F4E81048600846006840F0807025
:10395000086000BF0C48006800F000700028F9D033
:103960000948406820F0030007494860084640685D
:1039700040F00200486000BF0348406800F00C00BF
:103980000828F9D10CBD00000010024000200240C0
:1039900010B5044624B110210448FDF70AFB03E0EA
:1039A00010210248FDF703FB10BD00000008014094
:1039B00070B50446002507E02846691C8DB2B0F5B5
:1039C000FA6F01DDFF2070BD02210F48FEF7D8F825
:1039D0000028F1D021460C48FEF7DEF8002507E06C
:1039E0002846691C8DB2B0F5FA6F01DDFF20EAE7C9
:1039F00001210548FEF7C4F80028F1D00248FEF77F
:103A0000C8F8C0B2DFE7000000300140042808D148
:103A10004FF0E021096941F004014FF0E02211610B
:103A200007E04FF0E021096921F004014FF0E022A6
:103A3000116170477047000010B51348006840F0EE
:103A400001001149086008464068104908400E49C5
:103A50004860084600680E4908400B49086008465F
:103A6000006820F4802008600846406820F4FE00CA
:103A700048604FF41F008860FFF715FF4FF00060AB
:103A80000449086010BD0000001002400000FFF86B
:103A9000FFFFF6FE08ED00E010B50121074800F039
:103AA00083F848B10121054800F063F8002103487C
:103AB00000F062F8FEF7D0FE10BD000000040040E8
:103AC0007FB505460C4601210220FDF7C1FE1848CE
:103AD000008840F0040016490880ADF80850ADF8A1
:103AE00004400020ADF80A00ADF8060001A9104816
:103AF00000F078F8012211460D4800F066F81D200C
:103B00008DF8000000208DF8010003208DF80200E0
:103B100001208DF803006846FDF720FC01210448D0
:103B200000F027F80121024800F026F87FBD0000D0
:103B30000004004010B501210A4800F035F80128C2
:103B40000AD10949086980470021064800F048F871
:103B50006421044800F042F80121024800F009F80D
:103B600010BD00000008004088000020CA43028207
:103B70007047CA430282704721B1028842F00102B5
:103B8000028004E002884FF6FE731A4002807047FC
:103B90000146888C704702460020138A0B400BB107
:103BA000012000E00020704730B5024600200023CD
:103BB0000024158A05EA0103958905EA010413B179
:103BC0000CB1012000E0002030BD1AB183890B4305
:103BD000838102E083898B438381704781857047AD
:103BE00081847047002202881D4B98420ED01D4BE5
:103BF00098420BD0B0F1804F08D01B4B984205D0B3
:103C00001A4B984202D01A4B984204D14FF68F7348
:103C10001A404B881A43174B984207D0164B9842CC
:103C200004D04FF6FF431A40CB881A4302808B889A
:103C300083850B8803850A4B98420BD0094B984229
:103C400008D00E4B984205D00D4B984202D00D4B38
:103C5000984201D10B7A03860123838270470000CA
:103C6000002C0140003401400004004000080040E6
:103C7000000C0040001000400014004000400140D3
:103C800000440140004801407FB505460C46012133
:103C90000420FDF7DDFDADF80850ADF8044000202C
:103CA000ADF80A00ADF8060001A90D48FFF79AFF2C
:103CB000012241210A48FFF788FF1E208DF80000ED
:103CC00003208DF801008DF8020001208DF803001B
:103CD0006846FDF743FB01210148FFF74DFF7FBD1B
:103CE0000008004010B52021084800F0ABF801287A
:103CF0000AD10748006838B1044800F06BF9C4B233
:103D0000204603490968884710BD0000003801407B
:103D10003400002010B540F22551124800F09FF801
:103D2000F0B1104800F056F90F49104A1278885443
:103D30000E48007830B908460C490978405C2C28B8
:103D400000D010BD09480078401CC0B20749087077
:103D5000092801DB002008702021024800F008F843
:103D600000BFEEE700480040C002002058000020DD
:103D700010B50022002340F66A14A14200D100BF12
:103D80000A1201249440A3B2DC43048010BD21B187
:103D9000828942F40052828104E082894DF6FF73E9
:103DA0001A4082817047000010B5044620488442C2
:103DB00009D101218803FDF77BFD00214FF48040EC
:103DC000FDF776FD32E01B48844209D10121480409
:103DD000FDF74EFD00214FF40030FDF749FD25E0D1
:103DE0001548844209D101218804FDF741FD0021D5
:103DF0004FF48020FDF73CFD18E01048844209D1C3
:103E00000121C804FDF734FD00214FF40020FDF727
:103E10002FFD0BE00A48844208D101210805FDF777
:103E200027FD00214FF48010FDF722FD10BD00009A
:103E3000003801400044004000480040004C004071
:103E40000050004002460020B1F5007F00D100BFC5
:103E500013880B400BB1012000E00020704770B5C3
:103E60000246002400230025002040F66A16B142D5
:103E700000D100BFC1F3421501F01F03012606FA6D
:103E800003F3012D02D19689334006E0022D02D1C1
:103E9000168A334001E0968A33400C12012606FA56
:103EA00004F41688344013B10CB1012000E0002066
:103EB00070BDF0B50346002400260025002040F622
:103EC0006A17B94200D100BF1846C1F3421401F08D
:103ED0001F06012707FA06F5012C01D10C3004E07A
:103EE000022C01D1103000E014301AB107682F43C2
:103EF000076002E00768AF430760F0BD2DE9F047B7
:103F000086B005460E460024A24600BFA146002703
:103F1000B08900B100BF2F462C8A4CF6FF700440D8
:103F2000F08804432C82AC894EF6F3100440B0882C
:103F300031890843718908430443AC81AC8A4FF648
:103F4000FF400440B0890443AC8201A8FDF7C0FCE7
:103F50001F48874202D1DDF810A001E0DDF80CA077
:103F6000A88900F4004040B10AEBCA0000EB0A1037
:103F700031684900B0FBF1F807E00AEBCA0000EB3A
:103F80000A1031688900B0FBF1F86420B8FBF0F04A
:103F900004012009642101FB1089A88900F4004074
:103FA00040B1322000EBC900B0FBF1F000F0070097
:103FB000044308E0322000EB09106421B0FBF1F06B
:103FC00000F00F0004432C8106B0BDE8F08700002C
:103FD0000038014001468888C0F308007047C1F3EB
:103FE00008028280704700BFFEE730380A2801D2FD
:103FF000012070470020704700BF70472DE9F04155
:10400000C1F30A52A2F2FF362F4A304B0D46044646
:10401000142E2FDA002E12DA01F0C0FB0022134614
:1040200001F08AFF4CD2002DBCBF4FF000450024A8
:1040300046DB55EA040018BF254D19D140E0DFF8F2
:1040400094C02CFA06F705EA070C5CEA040C08BFDA
:10405000BDE8F08101F0A2FB0022134601F06CFFE5
:104060002ED2002D03DD4FF48010F0400544BD43F7
:10407000002425E0332EC8BFBDE8F081A6F1140C62
:104080004FF0FF3727FA0CF73C4208BFBDE8F0813C
:1040900001F0E2FF0022134601F04EFF10D2002D86
:1040A0000DDD142E08BF6D1C09D0C6F134000121AE
:1040B00001FA00F02044A04238BF6D1C0446BC4306
:1040C00029462046BDE8F0819C7500883CE4377E97
:1040D0000000F03FFFFF0F0010B56FF00400FFF786
:1040E00095FC0A4800680A49B0FBF1F009490870DC
:1040F0000846007800EB4001C1EBC0104FF6FF719D
:1041000001EAC0000449088010BD0000080000203A
:1041100000127A0044000020460000200146114AA7
:1041200012884A434FF0E0235A6100229A611A46EE
:10413000126942F001021A6100BF4FF0E0221069DB
:1041400000F001021AB100F48032002AF5D04FF0DD
:10415000E022126922F001024FF0E0231A610022EE
:104160009A617047460000200146114A12784A437E
:104170004FF0E0235A6100229A611A46126942F018
:1041800001021A6100BF4FF0E022106900F0010245
:104190001AB100F48032002AF5D04FF0E022126903
:1041A00022F001024FF0E0231A6100229A61704769
:1041B000440000202DE9F041C1F30A52A2F2FF367B
:1041C0002F4A304B0D460446142E2FDA002E12DAF9
:1041D00001F0E4FA0022134601F0AEFE4CD2002DAD
:1041E000A4BF0024254647DA25F00040204318BF2D
:1041F000254D41D018E0DFF894C02CFA06F705EA07
:10420000070C5CEA040C08BFBDE8F08101F0C6FAB7
:104210000022134601F090FE2ED2002D03DA4FF457
:104220008010F0400544BD43002425E0332EC8BF74
:10423000BDE8F081A6F1140C4FF0FF3727FA0CF718
:104240003C4208BFBDE8F08101F006FF00221346A2
:1042500001F072FE10D2002D0DDA142E08BF6D1C75
:1042600009D0C6F13400012101FA00F02044A04237
:1042700038BF6D1C0446BC4329462046BDE8F0818A
:104280009C7500883CE4377E0000F0BFFFFF0F0004
:1042900070B504460D4600BF80210548FFF7D2FDEA
:1042A0000028F9D0E1B20248FFF799FE204670BD20
:1042B000003801408AB00024FDF700F8FFF70CFF3A
:1042C0004FF4A060FDF782F842494FF4E130FCF76B
:1042D00003FF00BF40480078042807DDA1223F49C2
:1042E0003FA0FBF7A3FF41A0FBF7A0FF00BF6CB10D
:1042F00000BF39480078042807DDA322374938A0D9
:10430000FBF794FF3CA0FBF791FF0DE000BF3248A4
:104310000078042807DDA522304931A0FBF786FF8D
:104320003AA0FBF783FF00BF3C4800683C49B0FB64
:10433000F1F0C5B23B484168284688473A483B49B6
:1043400008603B4888603B4848603B48C8603B4841
:1043500008613B480168354888473948C168394891
:10436000884740F6B830002105910691CDE9071045
:1043700001200822CDE90102CDE9031007200090B9
:104380002F480B4600221421C5690120A8470120AF
:104390000021069107910523CDE90810CDE90231EE
:1043A000CDE904100820CDE900102548012307229B
:1043B00085691846A847FCF742FBFCF74FFB2048ED
:1043C000416B4FF47A70884703E0FDF7DDF8FDF7A5
:1043D000F5FAFAE72145000830000020F8640008EB
:1043E0005B257328292D25645D000000696E6974C2
:1043F000206F6B0D0A0000007468697320697320D8
:104400006D61737465720D0A000000007468697351
:1044100020697320736C6176650D0A000800002026
:1044200040420F0088000020F5170008DC01002042
:104430001D17000815180008BD170008711700089F
:10444000086500088050DE192DE9F04D07460E463C
:1044500001F0A8FD04460D463A46334601F0FCFD46
:10446000DFF86CA0DFF86CB01B4B0746884616F0EF
:10447000004F4FF000020AD001F024FC0AD90022BC
:104480005B463846414601F057FD1BD212E001F071
:1044900019FC08D2002253462046294601F0E8FDC7
:1044A00004460D460EE000225B463846414601F0C8
:1044B00043FD07D8002253462046294601F06EF9F5
:1044C00004460D463146204665F31E01BDE8F08DD9
:1044D0000000F03F0000E03F0000E0BF70B5044680
:1044E0000D462A46214606A0FBF7A0FE0120FEF756
:1044F000A9FA0646314607A0FBF798FE022070BDD8
:104500000D0A7465737446756E3A25642D25730D16
:104510000A000000727373693A25640D0A000000F6
:1045200070B505461A48FFF755FDC4B21948008812
:1045300000F4004058BB1748008800F4804060B188
:104540000A2C03D000201349088020E0114800887D
:1045500040F400400F49088019E00D2C06D10D48A9
:10456000008840F480400B49088010E0094800882A
:10457000C0F30D0008490C5406480088401C05494A
:10458000088008460088C72801DD0020088070BD2B
:104590000038014038000020F801002010B586B036
:1045A000044601210820FDF773F901218804FDF775
:1045B0004FF94FF48060ADF8100003208DF8120021
:1045C00018208DF8130004A91C48FCF713FC4FF4C5
:1045D0000060ADF8100004208DF8130004A91748FE
:1045E000FCF708FC00940020ADF80400ADF80600CC
:1045F000ADF80800ADF80C000C20ADF80A006946D3
:104600000F48FFF77BFC01210D48FFF7C0FB01229B
:1046100040F225510A48FFF74CFC27208DF8140082
:1046200003208DF815008DF8160001208DF8170075
:1046300005A8FCF793FE06B010BD0000000C014079
:104640000048004030B595B0054613AB12AA09A941
:10465000284600F039FA044614B1204615B030BDA2
:104660000020149026E0224909689DF8502001EBB3
:10467000C20113AB11AA486801A900F025FA04464B
:104680000CB12046EAE709A901A800F0BBFC60B91B
:104690009DF844009DF84810884201DD0220DDE7C6
:1046A0009DF85000124988750AE09DF85000401CA2
:1046B000C0B214900E48007D9DF850108842D2DCA4
:1046C00000BF0B48007D9DF85010884201D10420A6
:1046D000C4E714A9284600F0D7FA04460CB12046D6
:1046E000BCE79DF85000024948750020B6E700007D
:1046F000880000202DE9F0419AB09C48847D007D1F
:10470000A04202DC1AB0BDE8F0819849096801EBCB
:10471000C40106AB07AA486808A900F0D5F908A9A2
:1047200093A0FBF783FD002644E09048008B012115
:10473000B1400840D8B122218FA0FBF777FD304669
:1047400000F028FB89492431471839468BA0FBF734
:104750006DFD222188A0FBF769FD304600F01AFBB1
:1047600082492431084410A941F8260018E0304657
:1047700000F010FB7D492431085810A941F82600AB
:104780007A48C07D30B910A850F826107CA0FBF7FD
:104790004DFD05E010A850F826107AA0FBF746FD65
:1047A0009DF81C00401EB04202D078A0FBF73EFDF1
:1047B000701CC6B29DF81C008642B6DB74A0FBF7E5
:1047C00035FD00F039FB6948407D0B280DD2DFE84C
:1047D00000F0060D151E27323F4E5F7287006349B9
:1047E000096851F834008047054690E05F4A126836
:1047F00052F8341010988847054688E05B4B1B68D8
:1048000053F83420DDE91001904705467FE0574F0B
:104810003F6857F8343010A807C89847054676E037
:10482000DFF848C1DCF800C05CF8347010A80FC88D
:10483000B84705466BE01498DFF830C10090DCF80B
:1048400000C05CF8347010A80FC8B84705465EE099
:10485000DDE91401DFF814C1CDE90001DCF800C086
:104860005CF8347010A80FC8B84705464FE0DDE982
:1048700014121698DFF8F4C0CDE900120290DCF8AB
:1048800000C05CF8347010A80FC8B84705463EE079
:10489000DDE91423DDE91610DFF8D0C0CDE90023EF
:1048A000CDE90210DCF800C05CF8347010A80FC825
:1048B000B84705462BE0DDE91523DDE91710CDE902
:1048C0000123CDE903101498DFF8A0C00090DCF8B4
:1048D00000C05CF8347010A80FC8B847054616E051
:1048E000DDE91623DDE91810CDE90223CDE9041036
:1048F000DDE91401DFF874C0CDE90001DCF800C087
:104900005CF8347010A80FC8B847054600BF00BF58
:1049100000F050FA9DF8180001280CD11348C07D12
:1049200020B929461BA0FBF781FC07E029461BA004
:10493000FBF77CFC02E018A0FBF778FC0B4890F832
:10494000EC0088B10948D0F8F0000A21B0FBF1F280
:1049500001FB12070548D0F8F000B0FBF1F83A4629
:10496000414611A0FBF762FC00BFCBE688000020A7
:104970000D0A257328000000256300002573000040
:10498000256C750030582558000000002C000000F0
:10499000290000003D256C753B0D0A003D3058256F
:1049A000583B0D0A0000000046756E6374696F6E17
:1049B0002052756E2054696D653A25642E25316448
:1049C0006D730D0A00000000F0B503461546002087
:1049D00000220026002455E01F782C2F01D104B9B5
:1049E00001221F78292F01D01F780FB904B94AE09E
:1049F000002E34D11F78302F02DB1F78392F11DDC4
:104A00001F78612F02DB1F78662F0BDD1F78412F87
:104A100002DB1F78462F05DD1F78582F02D01F7844
:104A2000782F0CD102B12EE01F78612F03DB1F78A5
:104A3000203F0F7001E01F780F70491C1FE01F78A6
:104A4000222F04D102B11EE00126012417E01F78B5
:104A5000202F14D01F782C2F11D0FF2613E01F78A1
:104A6000222F00D1002402B10DE044B11F785C2F49
:104A700002D15B1C471CF8B21F780F70491C471C01
:104A8000F8B25B1CA8E700BF00270F702E70F0BDC6
:104A900010B50446002010700BE020780870641CEC
:104AA000491C1078401C10701078984201DB0120DE
:104AB00010BD2078202802D020780028EDD10020D9
:104AC000087000BFF4E700002DE9FF4F85B0804675
:104AD00089460027002004900390012002904FF0A7
:104AE000000B002544461DE02078202816D005F054
:104AF0007F00052812DA0DB945F0800505F07F002A
:104B0000042803D120782A2800D00EE0207805F070
:104B10007F010DF80100681CC5B202E0852D00D1AF
:104B200003E0641C20780028DED100BF8DB1002096
:104B300005F07F010DF8010051A1684600F062FA0E
:104B400018B900210898017002E00121089801704D
:104B500000254FF0000A444614E0641C0AF10100ED
:104B600000F0FF0A2078202802D020782A2809D1D6
:104B7000204600F0D7F90646282E03D02A2E01D071
:104B8000CDF810A02078282802D020780028E4D181
:104B90004446049810B10498401C04444FF0000AA5
:104BA000002654E0207810B94FF0010A50E0207838
:104BB000282803D116B9781CC7B213E02078292819
:104BC00008D13EB917B1781EC7B201E04FF0010A13
:104BD00047B93DE02078222804D10EB9012000E039
:104BE0000020064647B9207820282FD0207889F861
:104BF000000009F1010929E020782C2804D10120C6
:104C00000290681CC5B214E02078202811D02078CA
:104C100028280ED04DB9BBF1050F06DA20780DF823
:104C20000B000BF1010000F0FF0B0298401CC0B21A
:104C30000290012F0AD10298022807D10298401C45
:104C4000C0B202900398401CC0B20390641CA9E754
:104C500000BF0398012809D100200DF80B0008A11E
:104C6000684600F0CFF908B900200390079903982F
:104C70000870002089F80000504609B0BDE8F08FA8
:104C8000766F6964000000002DE9F043B5B0054679
:104C90000F460024002604E000213D488155701C89
:104CA000C6B20A2EF8DB06E06D1C287818B9012080
:104CB00035B0BDE8F08328782828F5D16D1C61E077
:104CC00034AA69462846FFF77FFE064635449DF81C
:104CD000D00020B1012827D0FF284CD149E09DF811
:104CE000000000B333A9684600F027F906460EB16C
:104CF0000220DDE7204600F04DF825490A31339ABD
:104D00000A50A1F12400008B0121A14088432049D1
:104D10001A39088304211E480155601CC4B20A2CAC
:104D200001DD0320C4E726E0684600F087F9401C57
:104D300000F0FF08204600F02DF815490A3100EB7D
:104D400001094946684600F06EF911481A38018B8E
:104D50000120A040014388B20D491A3908830C484C
:104D600000F80480601CC4B20A2C01DD03209FE718
:104D700001E002209CE700BF2878292801D028788C
:104D800000B900E09CE700BF3C70002090E7000005
:104D9000A200002002460020002105E0044B5B5CDD
:104DA0000344D8B24B1CD9B29142F7DB70470000E4
:104DB000A200002010B501210D48FEF7ECFE0128ED
:104DC00008D10C48D0F8F0004FF6FF7108440949AB
:104DD000C1F8F0000648FEF7DBFE0649D1F8F010F6
:104DE00008440449C1F8F0000846D0F8F00010BDAE
:104DF000000800408800002010B5044604EBC40001
:104E000000EB04100122C2EB800081B24FF47A70F3
:104E1000FEF73AFF01200149C87510BD8800002047
:104E200010B50246012000E050430B1EA1F1010421
:104E3000E1B2F9D110BD000010B501210848FEF71C
:104E400095FE4FF6FF710648FEF7C8FE00210448A4
:104E5000FEF7C6FE00200349C1F8F00010BD0000B7
:104E6000000800408800002070B51D48008800F44C
:104E70000040002833D01A480578002019494855C9
:104E8000194881681748884704461CB91649C868FC
:104E9000804721E0134800F0DDF80546012D00D0E1
:104EA0002C46CCB1012C06D0022C08D0032C0AD001
:104EB000042C10D10BE00DA0FBF7B8F90BE00EA00D
:104EC000FBF7B4F907E00FA0FBF7B0F903E010A07F
:104ED000FBF7ACF900BF00BF00200149088070BD9E
:104EE00038000020F801002088000020BAAFCAFD79
:104EF000B4EDCEF3210D0A00B2CECAFDB4EDCEF36F
:104F0000210D0A00B2CECAFDCCABB6E0210D0A00DD
:104F1000CEB4D5D2B5BDC6A5C5E4B5C4BAAFCAFD39
:104F2000210D0A000146491C00E0491C0878202890
:104F300001D10029F9D1087870472DE9F0430746DF
:104F40000E4600254FF00A083C46002030601FE066
:104F50002078392802DC207830280ADA20784628A0
:104F600002DC2078412804DA2078582809D1012D64
:104F700007D12078412801DB4FF01008681CC5B22A
:104F800005E0207800B904E00120BDE8F083641C4E
:104F9000DEE700BF3C46B8F1100F0FD1032D01DA58
:104FA0000220F2E72078302806D16078582803D113
:104FB000A41CA81EC5B204E00320E6E70DB9042036
:104FC000E3E71BE00DB1681EC5B22078392806DC86
:104FD0002078302803DB2078A0F1300902E0207827
:104FE000A0F1370929464046FFF71AFF316809FB4F
:104FF00000103060641C207800B900E0E2E700BFD8
:105000000020C2E702460AE010780B78984201D0EF
:1050100001207047107800B902E0521C491CF3E7E8
:1050200000BF0020F5E706E002780A70027802B9B6
:1050300002E0401C491CF7E700BF70470146002012
:1050400005E00A7802B903E0421CD0B2491CF8E737
:1050500000BF704710B58CB004461E230BAA03A9ED
:105060002046FFF715FD0090009810B101200CB00C
:1050700010BD9DF82C00044400200B900EE0404829
:105080009DF82C2050F8221003A8FFF7BBFF00B9B1
:1050900008E09DF82C00401CC0B20B909DF82C003D
:1050A0000728ECD300BF9DF82C00072863D2DFE867
:1050B00000F004053C5E6564630000BF31A0FBF7AF
:1050C000B5F831A0FBF7B2F83FA0FBF7AFF84EA060
:1050D000FBF7ACF85CA0FBF7A9F86BA0FBF7A6F810
:1050E00079A0FBF7A3F886A0FBF7A0F88BA0FBF74D
:1050F0009DF890A0FBF79AF894A0FBF797F899A079
:10510000FBF794F89EA0FBF791F8A4A0FBF78EF8AC
:10511000B0A0FBF78BF8BDA0FBF788F8C8A0FBF7A1
:1051200085F8D4A0FBF782F89AE216A0FBF77EF888
:10513000E0A0FBF77BF800200B900EE0ED48006844
:105140009DF82C2000EBC2004168EBA0FBF76EF845
:105150009DF82C00401CC0B20B90E648007D9DF8E5
:105160002C108842EADC07A0FBF760F878E205A083
:10517000FBF75CF8C4E171E245E219E2ECE1000002
:105180005C0000200D0A00002D2D2D2D2D2D2D2D24
:105190002D2D2D2D2D2D2D2D2D2D2D2D2D2D2D2D3F
:1051A00055534D4152542056332E312D2D2D2D2D3A
:1051B0002D2D2D2D2D2D2D2D2D2D2D2D2D2D2D2D1F
:1051C0002D2D2D200D0A00002020202055534D416B
:1051D0005254CAC7D3C9414C49454E54454BBFAA46
:1051E000B7A2B5C4D2BBB8F6C1E9C7C9B5C4B4AE9D
:1051F000BFDAB5F7CAD4BBA5BDBBD7E9BCFE2CCD81
:10520000A8B9FD200D0A0000CBFC2CC4E3BFC9D215
:10521000D4CDA8B9FDB4AEBFDAD6FACAD6B5F7D3A5
:10522000C3B3CCD0F2C0EFC3E6B5C4C8CEBACEBAD1
:10523000AFCAFD2CB2A2D6B4D0D02ED2F2B4CB2CB1
:10524000C4E3BFC90D0A0000D2D4CBE6D2E2B8FC59
:10525000B8C4BAAFCAFDB5C4CAE4C8EBB2CECAFD81
:1052600028D6A7B3D6CAFDD7D62831302F3136BDC0
:10527000F8D6C629A1A2D7D6B7FBB4AEA1A2BAAFC1
:10528000CAFDC8EB0D0A0000BFDAB5D8D6B7B5C85D
:10529000D7F7CEAAB2CECAFD292CB5A5B8F6BAAFBB
:1052A000CAFDD7EEB6E0D6A7B3D63130B8F6CAE419
:1052B000C8EBB2CECAFD2CB2A2D6A7B3D6BAAFCA3B
:1052C000FDB7B5200D0A0000BBD8D6B5CFD4CABEF5
:1052D0002ED0C2D4F6B2CECAFDCFD4CABEBDF8D647
:1052E000C6C9E8D6C3B9A6C4DC2CD0C2D4F6BDF872
:1052F000D6C6D7AABBBBB9A6C4DC2E0D0A000000D7
:10530000BCBCCAF5D6A7B3D63A7777772E6F70654F
:105310006E6564762E636F6D0D0A000055534D4126
:105320005254D3D037B8F6CFB5CDB3C3FCC1EE3AA3
:105330000D0A00003F3A202020202020BBF1C8A108
:10534000B0EFD6FAD0C5CFA20D0A000068656C7028
:105350003A202020BBF1C8A1B0EFD6FAD0C5CFA229
:105360000D0A00006C6973743A202020BFC9D3C3B2
:10537000B5C4BAAFCAFDC1D0B1ED0D0A0A00000034
:1053800069643A2020202020BFC9D3C3BAAFCAFD28
:10539000B5C44944C1D0B1ED0D0A0A006865783A38
:1053A00020202020B2CECAFD3136BDF8D6C6CFD4DB
:1053B000CABE2CBAF3B8FABFD5B8F12BCAFDD7D6FE
:1053C000BCB4D6B4D0D0BDF8D6C6D7AABBBB0D0AE4
:1053D0000A0000006465633A20202020B2CECAFD96
:1053E0003130BDF8D6C6CFD4CABE2CBAF3B8FABF96
:1053F000D5B8F12BCAFDD7D6BCB4D6B4D0D0BDF841
:10540000D6C6D7AABBBB0D0A0A00000072756E741F
:10541000696D653A312CBFAAC6F4BAAFCAFDD4CBC8
:10542000D0D0BCC6CAB13B302CB9D8B1D5BAAFCAFE
:10543000FDD4CBD0D0BCC6CAB13B0D0A0A000000D7
:10544000C7EBB0B4D5D5B3CCD0F2B1E0D0B4B8F19D
:10545000CABDCAE4C8EBBAAFCAFDC3FBBCB0B2CE8A
:10546000CAFDB2A2D2D4BBD8B3B5BCFCBDE1CAF868
:105470002E0D0A002D2D2D2D2D2D2D2D2D2D2D2DCB
:105480002D2D2D2D2D2D2D2D2D2D2D2D2D2D414C19
:1054900049454E54454B2D2D2D2D2D2D2D2D2D2D8A
:1054A0002D2D2D2D2D2D2D2D2D2D2D2D2D2D2D2039
:1054B0000D0A00002D2D2D2D2D2D2D2D2D2D2D2DB9
:1054C0002D2D2D2D2D2D2D2D2D2D2D2D2DBAAFCA60
:1054D000FDC7E5B5A52D2D2D2D2D2D2D2D2D2D2DDA
:1054E0002D2D2D2D2D2D2D2D2D2D2D2D2D2D2D2DEC
:1054F000200D0A008800002025730D0A000000001E
:1055000059A0FAF793FE00200B901AE0664909684B
:105510009DF82C2001EBC20101AB02AA486803A947
:10552000FFF7D2FA604800689DF82C1050F831203F
:1055300003A95EA0FAF77AFE9DF82C00401CC0B2C9
:105540000B905948007D9DF82C108842DEDCAFF2AC
:10555000CC30FAF76BFE83E0AFF2D830FAF766FE94
:105560000BAA03A92046FFF72FFA9DF82C00C8B913
:10557000694603A8FFF7E1FC0B909DF82C0020B9C9
:105580004FA00099FAF752FE0EE09DF82C00042877
:1055900001D002206BE54DA0FAF748FE01204249F8
:1055A000C87501E0022062E547A0FAF73FFE57E028
:1055B00045A0FAF73BFE0BAA03A92046FFF704FA21
:1055C0009DF82C00C8B9694603A8FFF7B6FC0B90FC
:1055D0009DF82C0020B942A00099FAF727FE0EE0B2
:1055E0009DF82C00042801D0022040E53FA0FAF7E6
:1055F0001DFE00202C49C87501E0022037E532A0CD
:10560000FAF714FE2CE030A0FAF710FE0BAA03A95B
:105610002046FFF7D9F99DF82C00C8B9694603A8C0
:10562000FFF78BFC0B909DF82C0078B91E49009871
:1056300081F8EC00084690F8EC0018B130A0FAF7B9
:10564000F5FD07E035A0FAF7F1FD03E002200EE5D5
:1056500002200CE51CA0FAF7E9FD01E0012006E5B7
:1056600000BF002003E500002D2D2D2D2D2D2D2D0B
:105670002D2D2D2D2D2D2D2D2D2D2D2D2D2D2D2D5A
:105680002DBAAFCAFD204944202D2D2D2D2D2D2DB5
:105690002D2D2D2D2D2D2D2D2D2D2D2D2D2D2D2D3A
:1056A0002D2D2D2D200D0A00880000202573206946
:1056B000642069733A0D0A3058253038580D0A00B5
:1056C0004845583A305825580D0A00003136BDF883
:1056D000D6C6B2CECAFDCFD4CABE210D0A00000084
:1056E0004445433A256C750D0A0000003130BDF881
:1056F000D6C6B2CECAFDCFD4CABE210D0A00000064
:1057000052756E2054696D652043616C63756C61E0
:1057100074696F6E204F4E0D0A00000052756E20A6
:1057200054696D652043616C63756C6174696F6E5B
:10573000204F46460D0A000021F00042A2F16052BF
:10574000B2F5801F01F0004328BFD2F17F6C0BD966
:105750005FEA001C43EAC20242EB507018BF704778
:1057600028BF20F001007047B2F5801FBCBF18466B
:1057700070474FEA410C1CF5001F02D2084600F0AA
:105780003CBE70B500F084FB00000089FFF7F6BF57
:105790004FF00040A0F580007047000010B591EA7E
:1057A000030F48BF83F0004300F16A84841A71EB51
:1057B000030C05D2121943EB0C03001B61EB0C0127
:1057C000DFF824E14FEA1154A4EB135C1EEA430F07
:1057D00018BF9EEA445F73D023EA0E03DCF1200E6B
:1057E00021EA045143F4801332D322FA0CFE10EB69
:1057F0000E0023FA0CFE41EB0E01CCF1200E03FA51
:105800000EFE10EB0E0051F10001B1F5801FCCF13E
:10581000200E32D201EB045112FA0EF2BDE8104014
:1058200058BF7047401C38BF5FEA420218BF70473C
:10583000002814BF20F0010041F100014FEA4103AC
:1058400013F5001F38BF7047A1F1C04100F06EBBD7
:10585000012A43EB0302ACF1200CDCF11F0E32BF36
:105860004FF0000E23FA0CF310EB030041EB045150
:10587000B4EB115FD0D0A1EB045101F580114908C0
:105880005FEA300001EB04510ED350F1000038BF45
:1058900012FA0EFE08D1BDE81040C9E7401C38BF1F
:1058A0005FEA4202CAD1C3E7BDE810404FEA4103B4
:1058B00013F5001F38BF7047A1F1C04100F036BB9F
:1058C0009EEA445F08D011EA5E0FBDE8104004BFB5
:1058D00001F0004100207047BDE8104070B500F0B5
:1058E000D7FA00BF64FBBE3E0000E0FF491058BF7E
:1058F000C1F140415B1058BFC3F140438B42EFF30D
:10590000008070472DE9C04130B4DFF8A0C23CEA06
:10591000111418BF3CEA131400F0EC8081EA03056F
:105920001CEA111444EAD57418BF1CEA131500F0E0
:10593000C780A4EB05044FF0004545EAC12145EAC4
:10594000C32341EA505143EA525304F17F74994210
:1059500004F500344FEAC0204FEAC22208BF90424B
:1059600000F09C804FEA13650FF24016765D4FEA17
:10597000134506FB05F7C7F1807706FB07F74FEAEB
:10598000D737A7FB03687642C8F58038A7FB06CE59
:1059900038BFA8F1010807FB08E64FF0000EA6FB90
:1059A000028CE6FB03CEDCF1000CCEF1004E38BFDA
:1059B000AEF1010EA6FB0C584FF000074FF00005AA
:1059C000E6FB0E87A1FB08C6A0FB07CE16EB0E0672
:1059D00045F10005E1FB076515F1E04E7EBFA4F53A
:1059E00080345FEA46066D4116F1800745F10005F7
:1059F0004FEA17274FEA066647EA0567A6F1DE4633
:105A0000B6F1805F4FEA15251FD9384624F0010C06
:105A100005EBC471BCF1FE6F01EB0C1102D8F0BCB8
:105A2000BDE8008124425CBF01F5801E9EEAC47F70
:105A300002D4F0BCBDE80081244238D4F0BCA1F10E
:105A4000C041BDE8004100F071BA4FEAD22242EAFB
:105A500043524FEAD323A7FB02864FEAD02040EA05
:105A6000415007FB03661EEA0E0F4FEAD12105FBEA
:105A7000026658BFA6EB0056B6EB00564FEA520E30
:105A80004EEAC37E18EB0E0E56EB530EBDD518EB47
:105A900002085E417F1C55F10005B6E74FF4801502
:105AA0004FF000074FF000064FF00008ADE7F0BCE4
:105AB0004FF0000001F1C04101F00041BDE800815C
:105AC00011EA0C1F0CEA131500D00CE013EA0C1FAE
:105AD00000F025804FF00000F0BC81EA030101F0E6
